:020000040000fa
:0200000018c323
:020001009492d7
:020002000000fc
:020003000000fb
:02000400ad75d8
:02000500bdd765
:020006006b4d40
:020007007bcfad
:02000800108264
:020009000000f5
:02000a0042288a
:02000b00c638f5
:02000c005acbcd
:02000d00c638f3
:02000e00b596a5
:02000f0094b2a9
:020010000000ee
:020011000000ed
:020012000000ec
:020013000000eb
:020014000000ea
:020015000000e9
:02001600b5969d
:02001700ffffe9
:02001800ffffe8
:02001900ffffe7
:02001a00ffffe6
:02001b00ffffe5
:02001c00ffffe4
:02001d00ffffe3
:02001e00ffffe2
:02001f00ffffe1
:02002000ffffe0
:0200210094b297
:02002200ad55da
:02002300bdd747
:02002400ffffdc
:02002500ffffdb
:02002600ffffda
:02002700ffffd9
:02002800ffffd8
:02002900ffffd7
:02002a00ffffd6
:02002b00ffffd5
:02002c00ffffd4
:02002d00ffffd3
:02002e00ffffd2
:02002f00ad75ad
:020030000000ce
:020031000000cd
:020032000000cc
:020033000000cb
:020034000000ca
:020035000000c9
:020036000000c8
:02003700f7be12
:0200380094b280
:02003900294557
:02003a00294556
:02003b00dedb0a
:02003c00738ec1
:02003d0031860a
:02003e00e73c9d
:02003f00086156
:02004000210499
:02004100bdf709
:02004200c618de
:020043009cd34c
:020044000000ba
:020045000000b9
:02004600ad55b6
:020047004a6904
:0200480018c3db
:02004900294547
:02004a00294546
:02004b0018c3d8
:02004c00294544
:02004d0094b26b
:02004e00ad55ae
:02004f00a534d6
:0200500094b268
:020051004a491a
:0200520018c3d1
:02005300086142
:020054004a69f7
:020055004a4916
:0200560073ae87
:020057008430f3
:02005800ef7d3a
:020059008c51c8
:02005a007bcf5a
:02005b00630c34
:02005c00e71c9f
:02005d009cd332
:02005e004a490d
:02005f004a69ec
:0200600094b258
:02006100f7bee8
:0200620000009c
:0200630000009b
:0200640000009a
:02006500000099
:02006600000098
:02006700000097
:0200680094b250
:02006900ffff97
:02006a00ffff96
:02006b00ffff95
:02006c00ffff94
:02006d00ffff93
:02006e00ffff92
:02006f00ffff91
:02007000ffff90
:02007100ffff8f
:02007200ffff8e
:02007300a514d2
:02007400086121
:0200750039e769
:02007600ffff8a
:02007700ffff89
:02007800ffff88
:02007900ffff87
:02007a00ffff86
:02007b00ffff85
:02007c00ffff84
:02007d00ffff83
:02007e00ffff82
:02007f00ffff81
:02008000b59633
:0200810000007d
:0200820000007c
:0200830000007b
:0200840000007a
:02008500000079
:02008600000078
:02008700000077
:02008800000076
:02008900000075
:02008a00000074
:02008b00000073
:02008c00294504
:02008d0073ae50
:02008e00d69a00
:02008f0039c76f
:02009000d6bade
:020091007bcf23
:020092007bef02
:02009300210446
:02009400738e69
:020095004a49d6
:020096004a49d5
:0200970018c38c
:020098004a69b3
:02009900b5b6fa
:02009a00738e63
:02009b007beff9
:02009c0039e742
:02009d008c5184
:02009e0021043b
:02009f0021043a
:0200a000210439
:0200a100210438
:0200a200210437
:0200a3008c517e
:0200a40039e73a
:0200a5007befef
:0200a600d69ae8
:0200a70052aa5b
:0200a800bdd7c2
:0200a900c61877
:0200aa004a49c1
:0200ab002945e5
:0200ac0018c377
:0200ad0018c376
:0200ae0018e355
:0200af00dedb96
:0200b00018c373
:0200b100f7be98
:0200b20000004c
:0200b30000004b
:0200b40000004a
:0200b500000049
:0200b600000048
:0200b700000047
:0200b800000046
:0200b900000045
:0200ba00000044
:0200bb009cd3d4
:0200bc00ffff44
:0200bd00ffff43
:0200be00ffff42
:0200bf00ffff41
:0200c000ffff40
:0200c100ffff3f
:0200c200ffff3e
:0200c300ffff3d
:0200c400ffff3c
:0200c500d69ac9
:0200c600002018
:0200c70039e717
:0200c800ffff38
:0200c900ffff37
:0200ca00ffff36
:0200cb00ffff35
:0200cc00ffff34
:0200cd00ffff33
:0200ce00ffff32
:0200cf00ffff31
:0200d000ffff30
:0200d100ffff2f
:0200d20094b2e6
:0200d30000002b
:0200d40000002a
:0200d500000029
:0200d600000028
:0200d700000027
:0200d800000026
:0200d900000025
:0200da00000024
:0200db00000023
:0200dc00000022
:0200dd00000021
:0200de002945b2
:0200df00dedb66
:0200e0007bcfd4
:0200e10039c71d
:0200e200c6381e
:0200e300ce79d4
:0200e400d6ba8a
:0200e500bdf765
:0200e600108286
:0200e7002945a9
:0200e800bdd782
:0200e900defb3c
:0200ea0018e319
:0200eb004228a9
:0200ec0084305e
:0200ed007bcfc7
:0200ee00738e0f
:0200ef00c63811
:0200f000bdf75a
:0200f100b5b6a2
:0200f200bdd778
:0200f300b5b6a0
:0200f400bdf756
:0200f500c6380b
:0200f600738e07
:0200f7007bcfbd
:0200f800843052
:0200f90042289b
:0200fa008c5127
:0200fb0073aee2
:0200fc00bdd76e
:0200fd00294593
:0200fe002124bb
:0200ff00294591
:02010000e71cfa
:020101000000fc
:02010200ce59d4
:020103004a6947
:020104000000f9
:020105000000f8
:020106000000f7
:020107000000f6
:020108000000f5
:020109000000f4
:02010a000000f3
:02010b000000f2
:02010c000000f1
:02010d000000f0
:02010e00a51436
:02010f00fffff0
:02011000ffffef
:02011100ffffee
:02011200ffffed
:02011300ffffec
:02011400ffffeb
:02011500ffffea
:02011600ffffe9
:020117006b4d2e
:0201180010a233
:0201190039e7c4
:02011a00ffffe5
:02011b00ffffe4
:02011c00ffffe3
:02011d00ffffe2
:02011e00ffffe1
:02011f00ffffe0
:02012000ffffdf
:02012100ffffde
:02012200ffffdd
:020123009cd36b
:020124000000d9
:020125000000d8
:020126000000d7
:020127000000d6
:020128000000d5
:020129000000d4
:02012a000000d3
:02012b000000d2
:02012c000000d1
:02012d000000d0
:02012e000000cf
:02012f000000ce
:0201300029455f
:02013100defbf3
:02013200defbf2
:02013300086161
:02013400e71cc6
:02013500d6ba38
:02013600318610
:0201370018c3eb
:020138006b4d0d
:0201390039e7a4
:02013a0021049e
:02013b0084102e
:02013c006b4d09
:02013d005aeb7b
:02013e00630c50
:02013f00d69a4e
:02014000e71cba
:02014100841028
:020142008c51de
:02014300f79e25
:02014400108227
:02014500ffffba
:020146008c51da
:02014700843002
:02014800e71cb2
:02014900d69a44
:02014a00630c44
:02014b005aeb6d
:02014c0031a6da
:02014d0084101c
:02014e0021048a
:02014f00ef7d42
:020150006b4df5
:0201510029453e
:0201520029453d
:0201530094b264
:02015400b5b63e
:02015500949282
:020156000000a7
:020157000000a6
:020158000000a5
:020159000000a4
:02015a000000a3
:02015b004a69ef
:02015c0094b25b
:02015d0094b25a
:02015e009cd330
:02015f0000009e
:0201600000009d
:02016100b59651
:02016200ffff9d
:02016300ffff9c
:02016400ffff9b
:02016500ffff9a
:02016600ffff99
:02016700ffff98
:02016800ffff97
:02016900e73c71
:02016a00ffff95
:02016b0039e772
:02016c00ffff93
:02016d00ffff92
:02016e00ffff91
:02016f00ffff90
:02017000ffff8f
:02017100ffff8e
:02017200ffff8d
:02017300ffff8c
:02017400a514d0
:02017500949262
:02017600294519
:0201770094b240
:02017800f7bed0
:02017900000084
:02017a00000083
:02017b00000082
:02017c00000081
:02017d00000080
:02017e0000007f
:02017f0000007e
:0201800000007d
:0201810000007c
:0201820029450d
:02018300e71c77
:02018400defba0
:020185001082e6
:020186008410e3
:02018700bdf7c2
:020188003186be
:0201890039e754
:02018a0021242e
:02018b0073ae51
:02018c005aeb2c
:02018d00632ce1
:02018e007bcf25
:02018f00210449
:0201900000006d
:0201910000006c
:0201920000006b
:0201930000006a
:02019400000069
:02019500210443
:0201960010a2b5
:02019700f79ed1
:02019800000065
:02019900000064
:02019a00000063
:02019b00000062
:02019c00000061
:02019d0021043b
:02019e007bcf15
:02019f00632ccf
:0201a0005aeb18
:0201a10073ae3b
:0201a2004228f1
:0201a30039e73a
:0201a400632cca
:0201a50018c37d
:0201a60094b211
:0201a700000056
:0201a80094922f
:0201a90094b20e
:0201aa004a69a0
:0201ab004a699f
:0201ac004a699e
:0201ad00defb77
:0201ae00ce7908
:0201af007befe4
:0201b000bdf799
:0201b10018c371
:0201b2002945dd
:0201b3004a6997
:0201b400ffff4b
:0201b500ffff4a
:0201b600ffff49
:0201b700ffff48
:0201b800ffff47
:0201b900ffff46
:0201ba00ffff45
:0201bb000861d9
:0201bc002124fc
:0201bd0039e720
:0201be00ffff41
:0201bf00ffff40
:0201c000ffff3f
:0201c100ffff3e
:0201c200ffff3d
:0201c300ffff3c
:0201c400ffff3b
:0201c500b596ed
:0201c600949211
:0201c7009cf3a7
:0201c800ce79ee
:0201c900b596e9
:0201ca0094b2ed
:0201cb00000032
:0201cc00000031
:0201cd00000030
:0201ce0000002f
:0201cf0000002e
:0201d00000002d
:0201d10000002c
:0201d20000002b
:0201d30000002a
:0201d4002945bb
:0201d50039c728
:0201d600ce79e0
:0201d70018c34b
:0201d800528a49
:0201d9007bcfda
:0201da008c7126
:0201db0039c722
:0201dc00296593
:0201dd006b6d48
:0201de004208d5
:0201df0000001e
:0201e00000001d
:0201e10000001c
:0201e20000001b
:0201e30000001a
:0201e400000019
:0201e500000018
:0201e6002124d2
:0201e700bdd782
:0201e8000861ac
:0201e900b5b6a9
:0201ea000020f3
:0201eb00000012
:0201ec00000011
:0201ed00000010
:0201ee0000000f
:0201ef0000000e
:0201f00000000d
:0201f10000000c
:0201f2004208c1
:0201f3006b6d32
:0201f40029657b
:0201f50039c708
:0201f6008c710a
:0201f700e71c03
:0201f8004a4972
:0201f9004a6951
:0201fa00f7be4e
:0201fb009492dc
:0201fc00a53428
:0201fd00c63802
:0201fe00a51446
:0201ff007bef94
:020200007bef92
:02020100841067
:02020200ce59d3
:02020300738ef8
:02020400ce79b1
:02020500d6ba67
:02020600b596ab
:02020700fffff7
:02020800fffff6
:02020900fffff5
:02020a00fffff4
:02020b00fffff3
:02020c00fffff2
:02020d00ad55ed
:02020e008c5111
:02020f00bdf739
:02021000ffffee
:02021100ffffed
:02021200ffffec
:02021300ffffeb
:02021400ffffea
:02021500ffffe9
:02021600ffffe8
:020217009cd376
:020218004a6931
:02021900bdf72f
:02021a000000e2
:02021b007bef77
:02021c0018e3e5
:02021d00294571
:02021e0094b298
:02021f000000dd
:020220000000dc
:020221000000db
:020222000000da
:020223000000d9
:020224000000d8
:020225000000d7
:020226004a6923
:020227007bcf8b
:02022800a534fb
:0202290031861c
:02022a008c51f5
:02022b00ef7d65
:02022c005aeb8b
:02022d0031a6f8
:02022e0018e3d3
:02022f000000cd
:020230000000cc
:020231000000cb
:020232000000ca
:020233000000c9
:020234000000c8
:020235000000c7
:020236000000c6
:020237000000c5
:020238000020a4
:02023900b59678
:02023a00294554
:02023b00b59676
:02023c000000c0
:02023d000000bf
:02023e000000be
:02023f000000bd
:020240000000bc
:020241000000bb
:020242000000ba
:020243000000b9
:020244000000b8
:020245000000b7
:0202460018e3bb
:0202470031a6de
:020248005aeb6f
:02024900ef7d47
:02024a008c51d5
:02024b00630c42
:02024c00294542
:02024d00f7befa
:02024e0094b268
:02024f004a69fa
:0202500094b266
:02025100f7bef6
:020252000000aa
:02025300210484
:0202540042283e
:02025500002087
:02025600210481
:0202570018c3ca
:02025800ad55a2
:02025900ffffa5
:02025a00ffffa4
:02025b00ffffa3
:02025c00ffffa2
:02025d00ffffa1
:02025e00ffffa0
:02025f003186e6
:02026000ce5975
:02026100bdf7e7
:02026200ffff9c
:02026300ffff9b
:02026400ffff9a
:02026500ffff99
:02026600ffff98
:02026700ffff97
:02026800a534bb
:02026900000093
:02026a0094926c
:02026b0052aa95
:02026c008c7193
:02026d007bef25
:02026e005aeb49
:02026f00d69a1d
:02027000ad756a
:020271004a49f8
:02027200949264
:02027300000089
:02027400000088
:02027500000087
:02027600000086
:02027700000085
:02027800000084
:02027900294515
:02027a006b4dca
:02027b00086118
:02027c007bcf36
:02027d00528aa3
:02027e00e73c5b
:02027f0000007d
:0202800000007c
:0202810000007b
:0202820000007a
:02028300000079
:02028400000078
:02028500000077
:02028600000076
:02028700000075
:02028800000074
:02028900000073
:02028a008430be
:02028b00528a95
:02028c0094b22a
:02028d00528a93
:02028e008430ba
:02028f0000006d
:0202900000006c
:0202910000006b
:0202920000006a
:02029300000069
:02029400000068
:02029500000067
:02029600000066
:02029700000065
:02029800000064
:02029900000063
:02029a0039c762
:02029b00528a85
:02029c007bcf16
:02029d0021241a
:02029e00ce7917
:02029f0018c382
:0202a00000005c
:0202a10000005b
:0202a20000005a
:0202a300000059
:0202a400949232
:0202a500bdd7c3
:0202a600ce592f
:0202a700c63857
:0202a8006b4d9c
:0202a900bdf79f
:0202aa002945e4
:0202ab00a51498
:0202ac00ffff52
:0202ad00ffff51
:0202ae00ffff50
:0202af00ffff4f
:0202b000ffff4e
:0202b100949225
:0202b200a51491
:0202b30039e729
:0202b400ffff4a
:0202b500ffff49
:0202b600ffff48
:0202b700ffff47
:0202b800ffff46
:0202b900ffff45
:0202ba0094b2fc
:0202bb00000041
:0202bc00000040
:0202bd0018c364
:0202be00defb65
:0202bf00defb64
:0202c000defb63
:0202c10000003b
:0202c200d69aca
:0202c300843085
:0202c400a5147f
:0202c500949211
:0202c600000036
:0202c700000035
:0202c800000034
:0202c900000033
:0202ca0018c357
:0202cb00738e30
:0202cc00f7be7b
:0202cd006b4d77
:0202ce00630cbf
:0202cf004228c3
:0202d00000002c
:0202d10000002b
:0202d20000002a
:0202d300000029
:0202d400000028
:0202d500000027
:0202d600000026
:0202d700000025
:0202d800000024
:0202d900000023
:0202da00000022
:0202db004208d7
:0202dc0052aa24
:0202dd004a498c
:0202de00f7be69
:0202df004a498a
:0202e00052aa20
:0202e1004208d1
:0202e20000001a
:0202e300000019
:0202e400000018
:0202e500000017
:0202e600000016
:0202e700000015
:0202e800000014
:0202e900000013
:0202ea00000012
:0202eb00000011
:0202ec00000010
:0202ed004228a5
:0202ee00630c9f
:0202ef006b4d55
:0202f000f7be57
:0202f100738e0a
:0202f20018c32f
:0202f300000009
:0202f400000008
:0202f500000007
:0202f6004a4973
:0202f700841071
:0202f80008619b
:0202f900e73ce0
:0202fa00632c73
:0202fb0031864a
:0202fc00f79e6b
:0202fd004a694c
:0202fe00ffff00
:0202ff00ffffff
:02030000fffffd
:02030100fffffc
:02030200fffffb
:020303002104d3
:02030400296569
:02030500bdf742
:02030600fffff7
:02030700fffff6
:02030800fffff5
:02030900fffff4
:02030a00fffff3
:02030b00a53417
:02030c000000ef
:02030d000000ee
:02030e000000ed
:02030f0029457e
:02031000defb12
:02031100e73cc7
:02031200c6180b
:0203130008419f
:0203140042287d
:020315000000e6
:02031600c638e7
:020317004a6931
:020318000000e3
:020319000000e2
:02031a000000e1
:02031b0018c305
:02031c00738ede
:02031d000020be
:02031e00630c6e
:02031f006b4d24
:020320000020bb
:020321000000da
:020322000000d9
:020323000000d8
:020324000000d7
:020325000000d6
:020326000000d5
:020327000000d4
:020328000000d3
:020329000000d2
:02032a000000d1
:02032b000000d0
:02032c00ef7d63
:02032d0052aad2
:02032e004a691a
:02032f000000cc
:020330000000cb
:020331000000ca
:020332004a6916
:0203330052aacc
:0203340039e7a7
:020335000000c6
:020336000000c5
:020337000000c4
:020338000000c3
:020339000000c2
:02033a000000c1
:02033b000000c0
:02033c000000bf
:02033d000000be
:02033e000000bd
:02033f000000bc
:0203400000209b
:020341006b4d02
:02034200630c4a
:0203430008416f
:02034400738eb6
:0203450018c3db
:02034600f7be00
:0203470094b26e
:020348000000b3
:020349009cf323
:02034a009cf322
:02034b00c638b2
:02034c00d6ba1f
:02034d006b6dd6
:02034e007bcf63
:02034f008c71af
:0203500073ae8a
:02035100841016
:02035200ffffab
:02035300ffffaa
:02035400ffffa9
:02035500294538
:0203560018e3aa
:02035700bdf7f0
:02035800ffffa5
:02035900ffffa4
:02035a00ffffa3
:02035b00ffffa2
:02035c00ffffa1
:02035d0094b258
:02035e0000009d
:02035f0000009c
:0203600000009b
:0203610094b254
:02036200bdf7e5
:020363007bcf4e
:02036400b5964c
:0203650008612d
:02036600000095
:0203670008612b
:0203680094926d
:02036900294524
:02036a0094b24b
:02036b0094b24a
:02036c00294521
:02036d00ce5967
:02036e0000008d
:02036f00630c1d
:020370006b6db3
:0203710000008a
:02037200000089
:02037300000088
:02037400000087
:02037500000086
:02037600000085
:02037700000084
:02037800000083
:02037900000082
:02037a00000081
:02037b00000080
:02037c0000007f
:02037d00ffff80
:02037e00528aa1
:02037f004a69c9
:020380004a49e8
:0203810094b234
:02038200000079
:0203830094b232
:020384004a49e4
:020385004a69c3
:02038600528a99
:02038700ffff76
:02038800000073
:02038900000072
:02038a00000071
:02038b00000070
:02038c0000006f
:02038d0000006e
:02038e0000006d
:02038f0000006c
:0203900000006b
:0203910000006a
:02039200000069
:02039300000068
:020394006b6d8f
:02039500630cf7
:02039600000065
:02039700ce593d
:0203980018c388
:02039900ad7540
:02039a004a49ce
:02039b00e71c5d
:02039c006b4da7
:02039d00c61880
:02039e00d6bacd
:02039f00dedba3
:0203a0000861f2
:0203a1007beff0
:0203a200002039
:0203a300e73c35
:0203a40010a2a5
:0203a50018e35b
:0203a600738e54
:0203a700ffdf76
:0203a800ce790c
:0203a90039e732
:0203aa00ffff53
:0203ab00ffff52
:0203ac00ffff51
:0203ad00ffff50
:0203ae00a53474
:0203af0000004c
:0203b00000004b
:0203b10000004a
:0203b200000049
:0203b300000048
:0203b4009cf3b8
:0203b500630cd7
:0203b600738e44
:0203b7007befda
:0203b80039e723
:0203b9004208f8
:0203ba00e71c3e
:0203bb006b4d88
:0203bc00ce5918
:0203bd00bdd7aa
:0203be005aebf8
:0203bf000841f3
:0203c000ce5914
:0203c1006b4d82
:0203c200000039
:0203c300000038
:0203c400000037
:0203c500000036
:0203c600000035
:0203c700000034
:0203c800000033
:0203c900000032
:0203ca00000031
:0203cb00000030
:0203cc0000002f
:0203cd0000002e
:0203ce00ef7dc1
:0203cf00528a50
:0203d0002124e6
:0203d1004a4997
:0203d200defb50
:0203d300ad7506
:0203d4004a4994
:0203d500ad7504
:0203d600defb4c
:0203d7004a4991
:0203d8002945b5
:0203d900528a46
:0203da0084306d
:0203db00000020
:0203dc0000001f
:0203dd0000001e
:0203de0000001d
:0203df0000001c
:0203e00000001b
:0203e10000001a
:0203e200000019
:0203e300000018
:0203e400000017
:0203e500000016
:0203e600000015
:0203e7006b4d5c
:0203e800ce59ec
:0203e9000841c9
:0203ea0031865a
:0203eb00d6ba80
:0203ec00ce59e8
:0203ed00296580
:0203ee0073aeec
:0203ef00843058
:0203f000ef5dbf
:0203f10010a258
:0203f2007bef9f
:0203f30010a256
:0203f400dedb4e
:0203f5006b6d2e
:0203f600e71c02
:0203f700841070
:0203f800738e02
:0203f9002124bd
:0203fa00a51448
:0203fb00ffff02
:0203fc00ffff01
:0203fd00ffff00
:0203fe00ffffff
:0203ff00fffffe
:02040000ffdf1c
:020401000000f9
:020402000000f8
:020403000000f7
:020404000000f6
:020405000000f5
:020406000000f4
:0204070018c318
:02040800defb19
:02040900e73cce
:02040a007bef86
:02040b00d6ba5f
:02040c008c71f1
:02040d00086184
:02040e00ef5da0
:02040f00defb12
:02041000ef7d7e
:0204110073aec8
:02041200b5b67d
:020413000020c7
:020414000000e6
:020415000000e5
:020416000000e4
:020417000000e3
:020418000000e2
:020419000000e1
:02041a000000e0
:02041b000000df
:02041c000000de
:02041d000000dd
:02041e000000dc
:02041f00843027
:020420004a6927
:020421004a6926
:0204220029456a
:020423007bef6d
:020424000020b6
:02042500a5141c
:020426004a4941
:020427009cf344
:020428000020b2
:020429007bef67
:02042a00294562
:02042b004a691c
:02042c004a691b
:02042d00843019
:02042e000000cc
:02042f000000cb
:020430000000ca
:020431000000c9
:020432000000c8
:020433000000c7
:020434000000c6
:020435000000c5
:020436000000c4
:020437000000c3
:020438000000c2
:02043900084178
:02043a00b5b655
:02043b00defbe6
:02043c00f79e29
:02043d00ce7976
:02043e00e73c99
:02043f0018e3c0
:02044000ef5d6e
:0204410042284f
:02044200843004
:02044300296529
:02044400632c27
:02044500108223
:0204460042284a
:0204470052aab7
:0204480018e3b7
:02044900294543
:02044a004a491d
:02044b00f7befa
:02044c0094b268
:02044d00ffffaf
:02044e00ffffae
:02044f00ffffad
:02045000ffffac
:02045100ad55a7
:020452000000a8
:020453000000a7
:020454000000a6
:020455000000a5
:020456000000a4
:020457000000a3
:020458000000a2
:0204590018c3c6
:02045a00e71c9d
:02045b00420855
:02045c00630c2f
:02045d00bdd709
:02045e0029650e
:02045f007bef31
:0204600000009a
:0204610018e39e
:020462008430e4
:0204630094b251
:0204640042282c
:02046500000095
:02046600000094
:02046700000093
:02046800000092
:02046900000091
:02046a00000090
:02046b0000008f
:02046c0000008e
:02046d0000008d
:02046e0000008c
:02046f0000008b
:020470008410f6
:020471004a49f6
:020472004a69d5
:02047300212442
:02047400e73c63
:02047500000085
:020476001082f2
:020477009cf3f4
:020478004a49ef
:020479009cd312
:02047a00422816
:02047b0000007f
:02047c00e73c5b
:02047d0029450f
:02047e004a69c9
:02047f004a49e8
:020480008410e6
:02048100000079
:02048200000078
:02048300000077
:02048400000076
:02048500000075
:02048600000074
:02048700000073
:02048800000072
:02048900000071
:02048a00000070
:02048b0000006f
:02048c00422804
:02048d0094b227
:02048e008c518f
:02048f007bef01
:02049000422800
:02049100000069
:020492007beffe
:020493002965d9
:02049400ef7dfa
:02049500e71c62
:020496001082d2
:02049700bdf7af
:02049800e73c3f
:02049900c61883
:02049a004a49cd
:02049b0000005f
:02049c0000005e
:02049d0000005d
:02049e0000005c
:02049f00ad5559
:0204a000ffff5c
:0204a100ffff5b
:0204a200ffff5a
:0204a30042080d
:0204a400f7bea1
:0204a50039e735
:0204a600000054
:0204a700000053
:0204a800000052
:0204a900000051
:0204aa00000050
:0204ab0018c374
:0204ac00e71c4b
:0204ad0018c372
:0204ae002945de
:0204af004a49b8
:0204b0004a6997
:0204b1005acb24
:0204b20018e34d
:0204b3000841fe
:0204b400a5346d
:0204b5008410b1
:0204b600000044
:0204b700000043
:0204b800000042
:0204b900000041
:0204ba00000040
:0204bb0000003f
:0204bc0000003e
:0204bd0000003d
:0204be0000003c
:0204bf0000003b
:0204c00000003a
:0204c1008410a5
:0204c2004a6985
:0204c3004a6984
:0204c4002945c8
:0204c5007befcb
:0204c600000034
:0204c700000033
:0204c80018e337
:0204c900528a55
:0204ca0094b2ea
:0204cb00528a53
:0204cc00f79e99
:0204cd0000002d
:0204ce0000002c
:0204cf00e73c08
:0204d0002945bc
:0204d1004a6976
:0204d2004a6975
:0204d300841093
:0204d400000026
:0204d500000025
:0204d600000024
:0204d700000023
:0204d800000022
:0204d900000021
:0204da00000020
:0204db0000001f
:0204dc0000001e
:0204dd0000001d
:0204de0000001c
:0204df00841087
:0204e000ad5518
:0204e1000861b0
:0204e200dedb5f
:0204e300632c88
:0204e4002945a8
:0204e5004a4982
:0204e60094b2ce
:0204e700b596c8
:0204e800000012
:0204e9004a497e
:0204ea002945a2
:0204eb0094b2c9
:0204ec00f7be59
:0204ed0000000d
:0204ee0000000c
:0204ef0000000b
:0204f00000000a
:0204f1009cf37a
:0204f200ffff0a
:0204f300ffff09
:0204f400ffff08
:0204f500294597
:0204f6000841bb
:0204f700bdf74f
:0204f800ffff04
:0204f900ffff03
:0204fa00ffff02
:0204fb000000ff
:0204fc000000fe
:0204fd0029458f
:0204fe00e71cf9
:0204ff00dedb42
:020500004a6946
:020501000000f8
:020502000000f7
:0205030018c31b
:02050400ef7d89
:02050500defb1b
:02050600c61815
:020507000000f2
:020508000000f1
:020509000000f0
:02050a000000ef
:02050b000000ee
:02050c000000ed
:02050d000000ec
:02050e000000eb
:02050f000000ea
:020510000000e9
:020511000000e8
:02051200e73cc4
:020513002124a1
:020514004a6932
:020515004a6931
:02051600e73cc0
:020517000000e2
:020518000000e1
:020519008c5103
:02051a005aeb9a
:02051b004a494b
:02051c009492b7
:02051d004a4949
:02051e00630c6c
:02051f002104b5
:020520000000d9
:020521000000d8
:02052200e73cb4
:020523004a6923
:020524004a6922
:0205250021248f
:02052600e73cb0
:020527000000d2
:020528000000d1
:020529000000d0
:02052a000000cf
:02052b000000ce
:02052c000000cd
:02052d000000cc
:02052e000000cb
:02052f000000ca
:020530000000c9
:020531000000c8
:02053200c618e9
:02053300defbed
:02053400ef7d59
:02053500108232
:020536000000c3
:02053700f7be0d
:0205380094929b
:0205390094b27a
:02053a000000bf
:02053b000000be
:02053c000000bd
:02053d000000bc
:02053e000000bb
:02053f000000ba
:020540000000b9
:020541000000b8
:020542000000b7
:0205430094b270
:02054400ffffb7
:02054500ffffb6
:02054600ffffb5
:020547004a69ff
:0205480018c3d6
:0205490039e790
:02054a00ffffb1
:02054b00ffffb0
:02054c00ffffaf
:02054d009cd33d
:02054e000000ab
:02054f000000aa
:02055000ad7587
:0205510094b262
:020552000000a7
:020553000000a6
:020554004a69f2
:02055500ce597d
:0205560021245e
:0205570094b25c
:020558008c51c4
:020559000000a0
:02055a0000009f
:02055b0000009e
:02055c0000009d
:02055d0000009c
:02055e0000009b
:02055f0000009a
:02056000000099
:02056100000098
:02056200000097
:020563007bef2c
:02056400294527
:020565004a69e1
:020566004a69e0
:02056700ef5d46
:02056800000091
:02056900000090
:02056a00f79efa
:02056b005acb69
:02056c004a69da
:02056d004a49f9
:02056e009cd31c
:02056f004a49f7
:0205700029451b
:020571005acb63
:02057200f79ef2
:02057300000086
:02057400000085
:02057500ef5d38
:020576004a49f0
:020577004a69cf
:02057800294513
:02057900e73c5d
:02057a0000007f
:02057b0000007e
:02057c0000007d
:02057d0000007c
:02057e0000007b
:02057f0000007a
:02058000000079
:02058100000078
:02058200000077
:02058300000076
:020584008c7178
:0205850094b22e
:0205860021242e
:02058700ce594b
:020588004a69be
:02058900000070
:02058a0000006f
:02058b0000006e
:02058c0000006d
:02058d0000006c
:02058e0000006b
:02058f0000006a
:02059000000069
:02059100000068
:02059200000067
:02059300000066
:02059400000065
:02059500000064
:02059600a5348a
:02059700ffff64
:02059800ffff63
:02059900d69af0
:02059a00b59614
:02059b00bdf7aa
:02059c00ffff5f
:02059d00ffff5e
:02059e00ffff5d
:02059f00f7bea5
:0205a000000059
:0205a100000058
:0205a200000057
:0205a300000056
:0205a400000055
:0205a500000054
:0205a6002945e5
:0205a70039e732
:0205a80073ae30
:0205a900ce7909
:0205aa0000004f
:0205ab0000004e
:0205ac0000004d
:0205ad0000004c
:0205ae0000004b
:0205af0000004a
:0205b000000049
:0205b100000048
:0205b200000047
:0205b300000046
:0205b400e71c42
:0205b5002945d6
:0205b6002124fe
:0205b700528a66
:0205b80084308d
:0205b900000040
:0205ba0000003f
:0205bb008c5161
:0205bc0052aa41
:0205bd004a6989
:0205be0018c360
:0205bf00ce79f3
:0205c000210414
:0205c100ce5911
:0205c2002945c9
:0205c3004a6983
:0205c40052aa39
:0205c500ef7dc8
:0205c600000033
:0205c700000032
:0205c800ef5de5
:0205c900528a54
:0205ca002945c1
:0205cb002945c0
:0205cc00e71c2a
:0205cd0000002c
:0205ce0000002b
:0205cf0000002a
:0205d000000029
:0205d100000028
:0205d200000027
:0205d300000026
:0205d400000025
:0205d500000024
:0205d600000023
:0205d700ce79db
:0205d80073ae00
:0205d90039e700
:0205da002945b1
:0205db0000001e
:0205dc0000001d
:0205dd0000001c
:0205de0000001b
:0205df0000001a
:0205e000000019
:0205e100000018
:0205e200000017
:0205e300000016
:0205e400000015
:0205e500000014
:0205e600000013
:0205e700000012
:0205e8009cf382
:0205e900ffff12
:0205ea00ffff11
:0205eb00ffdf30
:0205ec005aebc8
:0205ed0039e7ec
:0205ee00ffff0d
:0205ef00ffff0c
:0205f000ad5507
:0205f100000008
:0205f200000007
:0205f300000006
:0205f400000005
:0205f500000004
:0205f600000003
:0205f700000002
:0205f800000001
:0205f900000000
:0205fa00ad55fd
:0205fb0018e303
:0205fc000000fd
:0205fd000000fc
:0205fe000000fb
:0205ff000000fa
:020600000000f8
:020601000000f7
:020602000000f6
:020603000000f5
:020604000000f4
:020605007bcfa9
:02060600294584
:020607004a693e
:02060800528a14
:02060900fffff1
:02060a000000ee
:02060b000000ed
:02060c00ef7d80
:02060d00528a0f
:02060e004a6937
:02060f004a6936
:02061000ce79a1
:020611000020c7
:020612000000e6
:020613002124a0
:02061400ce59bd
:02061500294575
:020616004a494f
:0206170052aae5
:0206180039e7c0
:020619000000df
:02061a000000de
:02061b00ffffdf
:02061c0052aae0
:02061d004a6928
:02061e0029456c
:02061f007bcf8f
:020620000000d8
:020621000000d7
:020622000000d6
:020623000000d5
:020624000000d4
:020625000000d3
:020626000000d2
:020627000000d1
:020628000000d0
:02062900f79e3a
:02062a00ad55cc
:02062b00212488
:02062c00bdd738
:02062d004a4938
:02062e000000ca
:02062f000000c9
:020630000000c8
:020631000000c7
:020632000000c6
:020633000000c5
:020634000000c4
:020635000000c3
:020636000000c2
:020637000000c1
:020638000000c0
:020639000000bf
:02063a00ffdfe0
:02063b00ffffbf
:02063c00ffffbe
:02063d00ef5d6f
:02063e00dedb01
:02063f00bdf705
:02064000ffffba
:02064100ffffb9
:020642009cf327
:020643000000b5
:020644000000b4
:020645000000b3
:020646000000b2
:020647000000b1
:020648000000b0
:020649000000af
:02064a000000ae
:02064b000000ad
:02064c0094b266
:02064d000000ab
:02064e000000aa
:02064f000000a9
:020650000000a8
:020651000000a7
:020652004a4913
:02065300108213
:020654004a4911
:0206550021047e
:0206560073ae81
:02065700294533
:020658004a69ed
:020659004a69ec
:02065a00ffffa0
:02065b0000009d
:02065c0000009c
:02065d00841007
:02065e004a4907
:02065f004a4906
:020660004a69e5
:02066100ce5970
:02066200000096
:02066300000095
:02066400000094
:02066500000093
:02066600000092
:02066700ce596a
:020668004a69dd
:020669004a49fc
:02066a00528ab2
:02066b00ef5d41
:02066c0000008c
:02066d0000008b
:02066e008430d6
:02066f004a69d6
:020670004a69d5
:02067100294519
:02067200d6baf6
:02067300210460
:020674004a49f1
:020675001082f1
:020676004a49ef
:02067700000081
:02067800000080
:0206790000007f
:02067a0000007e
:02067b0000007d
:02067c00bdf7c8
:02067d00ef5d2f
:02067e007bcf30
:02067f0018c39e
:02068000000078
:02068100000077
:02068200000076
:02068300000075
:02068400000074
:02068500000073
:02068600000072
:02068700000071
:02068800000070
:0206890000006f
:02068a0000006e
:02068b0000006d
:02068c0000006c
:02068d00ffff6d
:02068e00ffff6c
:02068f009cd3fa
:02069000002048
:02069100bdf7b3
:02069200ffff68
:02069300ffff67
:02069400ffdf86
:02069500000063
:02069600000062
:02069700000061
:02069800000060
:0206990000005f
:02069a0000005e
:02069b0000005d
:02069c0000005c
:02069d0000005b
:02069e0000005a
:02069f00000059
:0206a000000058
:0206a1004a49c4
:0206a200b5b6eb
:0206a300212410
:0206a40031869d
:0206a500a5347a
:0206a600ad7530
:0206a7009cd3e2
:0206a8002945e2
:0206a90021240a
:0206aa004a49bb
:0206ab008410b9
:0206ac0000004c
:0206ad0000004b
:0206ae00e73c27
:0206af004a6996
:0206b0004a49b5
:0206b1004a49b4
:0206b20094b200
:0206b3005acb20
:0206b400f79eaf
:0206b500000043
:0206b600000042
:0206b700000041
:0206b8008c7143
:0206b9005aebfa
:0206ba0094b2f8
:0206bb004a49aa
:0206bc004a49a9
:0206bd004a49a8
:0206be008410a6
:0206bf00000039
:0206c000000038
:0206c100843083
:0206c2004a6983
:0206c3002124f0
:0206c4002945c6
:0206c5009cd3c4
:0206c600ad7510
:0206c700a53458
:0206c800318679
:0206c90084109b
:0206ca0000002e
:0206cb0000002d
:0206cc0000002c
:0206cd0000002b
:0206ce00e71c27
:0206cf006b4d71
:0206d0008c514b
:0206d1004a6974
:0206d200000026
:0206d300000025
:0206d400000024
:0206d500000023
:0206d600000022
:0206d700000021
:0206d800000020
:0206d90000001f
:0206da0000001e
:0206db0000001d
:0206dc0000001c
:0206dd0000001b
:0206de0000001a
:0206df00a53440
:0206e000ffff1a
:0206e100738e16
:0206e2008c7119
:0206e30039e7f5
:0206e400ffff16
:0206e500ffff15
:0206e600000012
:0206e700000011
:0206e800000010
:0206e90000000f
:0206ea0000000e
:0206eb0000000d
:0206ec0000000c
:0206ed0000000b
:0206ee0000000a
:0206ef00000009
:0206f000000008
:0206f100000007
:0206f200000006
:0206f300294597
:0206f4007bcfba
:0206f50084106f
:0206f600bdf74e
:0206f700000001
:0206f800000000
:0206f90018c324
:0206fa00294590
:0206fb00630c8e
:0206fc00fffffe
:0206fd000000fb
:0206fe000000fa
:0206ff00841065
:02070000294589
:020701004a4963
:020702004a4962
:02070300bdd760
:020704004a4960
:020705004a495f
:020706005acbcc
:020707002104cb
:020708000000ef
:02070900422884
:02070a005aeba8
:02070b004a6939
:02070c004a4958
:02070d00bdd756
:02070e004a4956
:02070f004a4955
:020710004a6934
:02071100841052
:020712000000e5
:020713000000e4
:02071400ffffe5
:02071500630c73
:02071600294573
:0207170018c305
:0207180018c304
:0207190018c303
:02071a00086174
:02071b00d6ba4c
:02071c000000db
:02071d000000da
:02071e000000d9
:02071f000000d8
:0207200042286d
:02072100ad75b4
:02072200212490
:02072300b5b669
:020724004a4940
:020725000000d2
:020726000000d1
:020727000000d0
:020728000000cf
:020729000000ce
:02072a000000cd
:02072b000000cc
:02072c000000cb
:02072d000000ca
:02072e000000c9
:02072f000000c8
:020730000000c7
:02073100a5140d
:02073200ffffc7
:02073300b59679
:02073400420879
:0207350039e7a2
:02073600ffffc3
:02073700a534e7
:020738000000bf
:020739000000be
:02073a000000bd
:02073b000000bc
:02073c000000bb
:02073d000000ba
:02073e000000b9
:02073f000000b8
:020740000000b7
:020741000000b6
:020742000000b5
:020743000000b4
:020744000000b3
:020745004a69ff
:020746008c51d4
:02074700ce5989
:02074800e71cac
:020749000000ae
:02074a000000ad
:02074b000000ac
:02074c000000ab
:02074d00841016
:02074e000000a9
:02074f000000a8
:02075000841013
:020751004a69f3
:020752004a4912
:02075300294536
:02075400defbca
:0207550021245d
:02075600d69a31
:020757004a69ed
:02075800294531
:02075900b5b633
:02075a0039e77d
:02075b00bdd708
:02075c0029452d
:02075d004a69e7
:02075e00d69a29
:02075f00002078
:020760007bef2d
:020761004a69e3
:020762004a69e2
:02076300294526
:02076400e73c70
:02076500000092
:02076600000091
:02076700086127
:020768008410fb
:0207690073ae6d
:02076a00738e8c
:02076b006b6db4
:02076c007bcf41
:02076d00212445
:02076e00000089
:02076f00000088
:02077000000087
:02077100000086
:02077200000085
:02077300bdd7f0
:020774008430cf
:02077500d6baf2
:02077600294513
:02077700000080
:0207780000007f
:0207790000007e
:02077a0000007d
:02077b0000007c
:02077c0000007b
:02077d0000007a
:02077e00000079
:02077f00000078
:02078000000077
:02078100000076
:02078200000075
:020783009cd305
:02078400ffff75
:0207850094b22c
:02078600bdf7bd
:02078700bdf7bc
:02078800ffff71
:02078900a514b5
:02078a0000006d
:02078b0000006c
:02078c0000006b
:02078d0000006a
:02078e00000069
:02078f00000068
:02079000000067
:02079100000066
:02079200000065
:02079300000064
:02079400000063
:02079500000062
:0207960094b21b
:02079700b5b6f5
:0207980021043a
:02079900ad753c
:02079a00420813
:02079b0000005c
:02079c0000005b
:02079d0000005a
:02079e00000059
:02079f00d6bac8
:0207a0000861ee
:0207a10018c37b
:0207a20018c37a
:0207a3004a69a1
:0207a4004a69a0
:0207a500e73c2f
:0207a600000051
:0207a700000050
:0207a800d6babf
:0207a900212409
:0207aa0000004d
:0207ab004a49b9
:0207ac004a49b8
:0207ad004a49b7
:0207ae00000049
:0207af004a6995
:0207b000738e46
:0207b100000046
:0207b200000045
:0207b300ef5df8
:0207b4004a49b0
:0207b5004a49af
:0207b6002945d3
:0207b700e71c3d
:0207b80000003f
:0207b90000003e
:0207ba0000003d
:0207bb0000003c
:0207bc0000003b
:0207bd0000003a
:0207be00000039
:0207bf00000038
:0207c000000037
:0207c100000036
:0207c200000035
:0207c300000034
:0207c400000033
:0207c500d69ac2
:0207c600e71c2e
:0207c700e73c0d
:0207c80018c354
:0207c90000002e
:0207ca0000002d
:0207cb0000002c
:0207cc00949205
:0207cd004a4997
:0207ce00000029
:0207cf00000028
:0207d000000027
:0207d100000026
:0207d200000025
:0207d300000024
:0207d400000023
:0207d50094b2dc
:0207d600ffff23
:0207d7004a696d
:0207d8008c7122
:0207d90039e7fe
:0207da00ffff1f
:0207db009cd3ad
:0207dc0000001b
:0207dd0000001a
:0207de00000019
:0207df00000018
:0207e000000017
:0207e100000016
:0207e200000015
:0207e300000014
:0207e400000013
:0207e500000012
:0207e600000011
:0207e700000010
:0207e8002945a1
:0207e900d6ba7e
:0207ea0039e7ed
:0207eb00bdd778
:0207ec0000000b
:0207ed0000000a
:0207ee00000009
:0207ef00000008
:0207f000000007
:0207f1002124c1
:0207f20039c705
:0207f3006b6d2c
:0207f4006b6d2b
:0207f5007bcfb8
:0207f60084304d
:0207f7002124bb
:0207f8000000ff
:0207f900d69a8e
:0207fa0029458f
:0207fb009492d6
:0207fc004a4968
:0207fd0094b2b4
:0207fe000000f9
:0207ff0094b2b2
:020800004a6943
:0208010094b2af
:0208020018c319
:02080300d69a83
:020804000841a9
:020805000000f1
:02080600ef5da4
:020807002124aa
:020808004a495b
:0208090018c312
:02080a0073aecb
:02080b000000eb
:02080c000000ea
:02080d000000e9
:02080e000000e8
:02080f000000e7
:020810000000e6
:020811000000e5
:020812000000e4
:020813000000e3
:020814000000e2
:020815000000e1
:020816000000e0
:020817007bcf95
:02081800d69a6e
:0208190039e7bd
:02081a0029456e
:02081b000000db
:02081c000000da
:02081d0094b293
:02081e00b5968d
:02081f00ce59b0
:0208200094b290
:0208210018c3fa
:020822004a6921
:020823009cd364
:020824000000d2
:020825000000d1
:020826000000d0
:0208270094b289
:02082800bdd73a
:020829009492a7
:02082a00ad75aa
:02082b0039c7cb
:02082c00ffffcc
:02082d0094b283
:02082e000000c8
:02082f000000c7
:020830000000c6
:02083100f7be10
:020832004a4931
:0208330018c3e8
:02083400294554
:0208350094929b
:020836000000c0
:020837000000bf
:020838000000be
:020839000000bd
:02083a0018c3e1
:02083b00e73c98
:02083c007bcf70
:02083d00d69a49
:02083e000000b8
:02083f000000b7
:020840000000b6
:020841000000b5
:020842000000b4
:020843000000b3
:020844000000b2
:020845000000b1
:020846000000b0
:020847000000af
:020848000000ae
:020849000000ad
:02084a000000ac
:02084b007bef41
:02084c0029453c
:02084d0094b263
:02084e00dedbef
:02084f009cd338
:02085000949280
:020851009cd336
:02085200defbcb
:02085300a534ca
:020854004a490f
:0208550018c3c6
:02085600ce7959
:0208570000207f
:0208580000009e
:02085900ef5d51
:02085a004a69e9
:02085b004a4908
:02085c0018c3bf
:02085d00dedbe0
:02085e00000098
:02085f00000097
:02086000000096
:02086100000095
:02086200000094
:02086300000093
:02086400000092
:02086500000091
:02086600000090
:0208670000008f
:0208680000008e
:020869008430d9
:02086a00c6388e
:02086b008c51ae
:02086c0094b244
:02086d00000089
:02086e00000088
:02086f0094b241
:02087000b5963b
:02087100dedbcc
:020872006b6dac
:0208730031a6ac
:02087400e71c7f
:02087500ce595a
:020876004a69cd
:0208770000007f
:0208780000007e
:0208790094b237
:02087a00ad557a
:02087b009cf3ec
:02087c00f79ee5
:02087d0039c779
:02087e00630c09
:02087f0094b231
:02088000000076
:02088100000075
:02088200000074
:020883004a49e0
:02088400c61894
:02088500e73c4e
:0208860073ae4f
:020887009cf3e0
:0208880094b228
:0208890000006d
:02088a0000006c
:02088b0000006b
:02088c002945fc
:02088d0039e749
:02088e00d69af8
:02088f007bcf1d
:02089000000066
:02089100000065
:02089200000064
:02089300000063
:02089400000062
:02089500000061
:02089600000060
:0208970000005f
:0208980000005e
:0208990000005d
:02089a0000005c
:02089b0000005b
:02089c007bcf10
:02089d002945eb
:02089e004a49c5
:02089f004a69a4
:0208a000ef5d0a
:0208a100000055
:0208a20094922e
:0208a3004a49c0
:0208a400f7be9d
:0208a500ef7de5
:0208a6004a49bd
:0208a70094b209
:0208a80018c373
:0208a9006b6d75
:0208aa00084103
:0208ab0000004b
:0208ac00ef7dde
:0208ad00528a6d
:0208ae004a6995
:0208af002945d9
:0208b000d69ad6
:0208b100210420
:0208b200002024
:0208b300002023
:0208b400002022
:0208b500000041
:0208b600000040
:0208b70000003f
:0208b80000003e
:0208b90000003d
:0208ba0000003c
:0208bb00ef7dcf
:0208bc00bdf786
:0208bd00210414
:0208be009cf3a9
:0208bf00949211
:0208c000000036
:0208c100000035
:0208c2009cf3a5
:0208c3006b6d5b
:0208c400f79e9d
:0208c5008c5154
:0208c600ef7dc4
:0208c700ce79e8
:0208c8004a697b
:0208c90000002d
:0208ca0000002c
:0208cb0000002b
:0208cc00b596df
:0208cd00bdf775
:0208ce00ce79e1
:0208cf0039c727
:0208d000ad5524
:0208d10094b2df
:0208d200000024
:0208d300000023
:0208d40094b2dc
:0208d5005aebdc
:0208d60084306c
:0208d70084306b
:0208d80018e323
:0208d9007befb3
:0208da004a6969
:0208db0000001b
:0208dc0000001a
:0208dd00000019
:0208de004a4985
:0208df008c513a
:0208e000c63818
:0208e100841081
:0208e200000014
:0208e300000013
:0208e400000012
:0208e500000011
:0208e600000010
:0208e70000000f
:0208e80000000e
:0208e90000000d
:0208ea0000000c
:0208eb0000000b
:0208ec0000000a
:0208ed0073aee8
:0208ee0018c32d
:0208ef004a4974
:0208f000294598
:0208f100841071
:0208f200000004
:0208f300000003
:0208f400d69a92
:0208f50018c326
:0208f60094b2ba
:0208f7000000ff
:0208f80084106a
:0208f9002124b8
:0208fa0094b2b6
:0208fb0018c320
:0208fc00d69a8a
:0208fd000841b0
:0208fe000000f8
:0208ff0039e7d7
:0209000052aaf9
:02090100294586
:02090200294585
:0209030094b2ac
:02090400b5b686
:02090500bdd75c
:02090600318638
:020907007bef84
:020908000000ed
:020909000000ec
:02090a000000eb
:02090b000000ea
:02090c000000e9
:02090d008c510b
:02090e00b5b67c
:02090f002104c1
:02091000ad55e3
:0209110094b29e
:020912000000e3
:020913009492bc
:0209140094b29b
:02091500ef7d74
:02091600dedb26
:02091700212499
:02091800212498
:02091900ad55da
:02091a000000db
:02091b000000da
:02091c000000d9
:02091d000000d8
:02091e00bdd743
:02091f005acbb1
:02092000528af9
:0209210039c7d4
:02092200b59688
:020923000000d2
:020924000000d1
:020925000000d0
:020926004a493c
:02092700c638d0
:02092800b59682
:0209290018e3d1
:02092a00108239
:02092b00ce7983
:02092c00b5b65e
:02092d0094b282
:02092e000000c7
:02092f009492a0
:020930009cd356
:0209310021049f
:02093200bdf70f
:02093300420878
:020934000000c1
:020935000000c0
:020936000000bf
:020937000000be
:020938000000bd
:020939000000bc
:02093a0000209b
:02093b0000209a
:02093c00002099
:02093d0042086e
:02093e00738eb6
:02093f00294548
:020940004a4922
:02094100294546
:02094200e73c90
:020943000000b2
:02094400084168
:02094500d69a40
:0209460018c3d4
:0209470094b268
:0209480029453f
:020949007bef42
:02094a00422841
:02094b0094b264
:02094c004a4916
:02094d004a4915
:02094e00294539
:02094f006b4dee
:0209500008415c
:020951000000a4
:02095200f79e0e
:02095300632c13
:02095400294533
:0209550018c3c5
:0209560018c3c4
:0209570018c3c3
:02095800086134
:02095900b5b631
:02095a0000009b
:02095b0000009a
:02095c00000099
:02095d00000098
:02095e00000097
:02095f00210471
:02096000bdd701
:0209610021046f
:02096200ad7571
:0209630094b24c
:02096400000091
:02096500000090
:020966009cd320
:0209670039c78e
:02096800c6388f
:0209690018c3b1
:02096a004a69d8
:02096b004a49f7
:02096c00f7bed4
:02096d00000088
:02096e00000087
:02096f00000086
:02097000b5b61a
:02097100630c15
:02097200ce793c
:0209730039c782
:02097400b5b616
:02097500000080
:0209760000007f
:0209770000007e
:0209780094b237
:02097900630c0d
:02097a00ce5954
:02097b00528a9e
:02097c00630c0a
:02097d00dedbbf
:02097e0052aa7b
:02097f00000076
:02098000000075
:0209810094b22e
:02098200ad5571
:0209830021044d
:02098400b5b606
:020985008c5193
:0209860000006f
:0209870000006e
:0209880000006d
:0209890000006c
:02098a0000006b
:02098b00e73c47
:02098c003186b2
:02098d00bdd7d4
:02098e00bdd7d3
:02098f0094b220
:020990002945f7
:020991002945f6
:02099200528a87
:020993008410ce
:02099400000061
:02099500084117
:02099600ce7918
:0209970018c383
:020998004a49ca
:02099900212417
:02099a00e73c38
:02099b0000005a
:02099c008c715c
:02099d004a49c5
:02099e00949231
:02099f004a49c3
:0209a0008c5178
:0209a10018c379
:0209a2006b4d9b
:0209a3004a49bf
:0209a400000051
:0209a500084107
:0209a6008410bb
:0209a700738e4d
:0209a800ce5926
:0209a900632cbd
:0209aa006b6d73
:0209ab00843096
:0209ac00000049
:0209ad00000048
:0209ae00000047
:0209af00000046
:0209b000000045
:0209b1008c5167
:0209b200b5b6d8
:0209b30021041d
:0209b400ad553f
:0209b50094b2fa
:0209b60000003f
:0209b70000003e
:0209b8009cd3ce
:0209b9007befd2
:0209ba006b6d63
:0209bb00ce5913
:0209bc00c6383b
:0209bd00c6185a
:0209be004a49a4
:0209bf00000036
:0209c000000035
:0209c100000034
:0209c200bdd79f
:0209c300b5b6c7
:0209c4004208e7
:0209c50039e710
:0209c600b5b6c4
:0209c70000002e
:0209c80000002d
:0209c90000002c
:0209ca0000002b
:0209cb009cd3bb
:0209cc00bdd795
:0209cd004a4995
:0209ce00c61849
:0209cf0073ae05
:0209d0009cd3b6
:0209d100000024
:0209d200000023
:0209d30094b2dc
:0209d400ad75ff
:0209d5002104fb
:0209d600bdd78b
:0209d7002104f9
:0209d80000001d
:0209d90000001c
:0209da0000001b
:0209db0000001a
:0209dc000841d0
:0209dd00b596cd
:0209de000861ae
:0209df002945a8
:0209e00018c33a
:0209e10018c339
:0209e2002945a5
:0209e300632c83
:0209e400f79e7c
:0209e500000010
:0209e6000020ef
:0209e7006b4d56
:0209e80029459f
:0209e9004a4979
:0209ea004a4978
:0209eb00ef5dbe
:0209ec00000009
:0209ed00000008
:0209ee00dedb4e
:0209ef004a6953
:0209f000000005
:0209f1004a6951
:0209f20073aee2
:0209f300000002
:0209f400000001
:0209f500ef5db4
:0209f6002124ba
:0209f7000000fe
:0209f8000000fd
:0209f9000000fc
:0209fa000000fb
:0209fb000000fa
:0209fc000000f9
:0209fd000000f8
:0209fe000000f7
:0209ff000000f6
:020a00000000f4
:020a01000000f3
:020a02000000f2
:020a0300ef7d85
:020a0400bdf73c
:020a05002104ca
:020a06009cf35f
:020a07009492c7
:020a08000000ec
:020a09009492c5
:020a0a009cf35b
:020a0b00841055
:020a0c0018e3ed
:020a0d002104c2
:020a0e002124a1
:020a0f00738ee4
:020a1000294576
:020a11000000e3
:020a12000000e2
:020a13000000e1
:020a1400b5b675
:020a150018c304
:020a160010824c
:020a1700bdf729
:020a1800bdd748
:020a19000000db
:020a1a000000da
:020a1b000000d9
:020a1c004a6925
:020a1d006b4d1f
:020a1e00ef5d8a
:020a1f00ef5d89
:020a200039e7b4
:020a2100ef7d67
:020a22009cf343
:020a23009492ab
:020a24000000d0
:020a250094b289
:020a2600ad55cc
:020a27002104a8
:020a2800b5b661
:020a29008c51ee
:020a2a000000ca
:020a2b000000c9
:020a2c000000c8
:020a2d000000c7
:020a2e000000c6
:020a2f0042087b
:020a30006b6dec
:020a3100c638c5
:020a32006b4d0a
:020a3300738ec0
:020a340084102c
:020a3500084176
:020a36000000be
:020a370000209d
:020a3800ce7975
:020a390029454d
:020a3a004a4927
:020a3b0052aabd
:020a3c00ef7d4c
:020a3d000000b7
:020a3e000000b6
:020a3f00d6ba25
:020a4000294546
:020a410094b26d
:020a4200294544
:020a430094b26b
:020a440018c3d5
:020a4500dedbf6
:020a46000000ae
:020a47000000ad
:020a48008430f8
:020a49004a69f8
:020a4a004a4917
:020a4b000000a9
:020a4c000000a8
:020a4d000000a7
:020a4e000000a6
:020a4f000000a5
:020a50000000a4
:020a51000000a3
:020a52000000a2
:020a53000000a1
:020a54000000a0
:020a55008430eb
:020a5600c638a0
:020a57008c51c0
:020a580094b256
:020a590000009b
:020a5a0000009a
:020a5b0094b253
:020a5c00b5964d
:020a5d007bef2d
:020a5e005acb71
:020a5f004a4902
:020a6000b59649
:020a6100bdd7ff
:020a620094b24c
:020a6300000091
:020a6400000090
:020a650094b249
:020a6600ad558c
:020a67005aeb48
:020a680029451e
:020a690039e76b
:020a6a00b5963f
:020a6b00000089
:020a6c00000088
:020a6d00000087
:020a6e004a69d3
:020a6f006b4dcd
:020a70008410f0
:020a71007bef19
:020a7200dedbc9
:020a7300738e80
:020a7400ad557e
:020a7500949259
:020a760000007e
:020a7700949257
:020a78009cf3ed
:020a7900210456
:020a7a00bdf7c6
:020a7b00ef7d0d
:020a7c00000078
:020a7d00000077
:020a7e00000076
:020a7f00000075
:020a8000000074
:020a8100000073
:020a8200000072
:020a8300000071
:020a8400000070
:020a850000006f
:020a860000006e
:020a870000006d
:020a8800212427
:020a89006b4db3
:020a8a002945fc
:020a8b004a69b6
:020a8c0052aa6c
:020a8d0042081d
:020a8e00000066
:020a8f00000065
:020a9000738e63
:020a910018c388
:020a92004a69af
:020a9300ad555f
:020a9400e71c5d
:020a9500a514a6
:020a96004a69ab
:020a970018c382
:020a9800dedba3
:020a990000005b
:020a9a0000005a
:020a9b00ef7ded
:020a9c00528a7c
:020a9d004a49c4
:020a9e002945e8
:020a9f00c63857
:020aa000000054
:020aa100000053
:020aa200000052
:020aa300000051
:020aa400000050
:020aa50000004f
:020aa60000004e
:020aa7007bcf03
:020aa800d69adc
:020aa900ef7ddf
:020aaa002945dc
:020aab00000049
:020aac00000048
:020aad0094b201
:020aae00b596fb
:020aaf00d69ad5
:020ab0005acb1f
:020ab10018e348
:020ab2002945d4
:020ab300000041
:020ab400000040
:020ab50000003f
:020ab60000003e
:020ab70094b2f7
:020ab800630ccd
:020ab90018e340
:020aba007befd0
:020abb00bdd7a5
:020abc00ad5536
:020abd0094b2f1
:020abe00000036
:020abf00000035
:020ac00094b2ee
:020ac100b5b6c8
:020ac200bdf77e
:020ac300ce79ea
:020ac400738e2f
:020ac500dedb76
:020ac600b596e3
:020ac70094b2e7
:020ac80000002c
:020ac90000002b
:020aca0094b2e4
:020acb008c514c
:020acc00c6382a
:020acd00843073
:020ace00000026
:020acf00000025
:020ad000000024
:020ad100000023
:020ad200000022
:020ad300000021
:020ad400000020
:020ad50000001f
:020ad60000001e
:020ad70000001d
:020ad80000001c
:020ad9002124d6
:020ada006b4d62
:020adb002945ab
:020adc004a6965
:020add0052aa1b
:020ade00f79e81
:020adf00000015
:020ae000000014
:020ae100738e12
:020ae20018c337
:020ae3004a695e
:020ae40052aa14
:020ae5004208c5
:020ae60000000e
:020ae70039e7ed
:020ae80052aa10
:020ae9004a6958
:020aea0018c32f
:020aeb0073aee8
:020aec00000008
:020aed00000007
:020aee0039e7e6
:020aef0052aa09
:020af0004a4971
:020af100294595
:020af2006b4d4a
:020af300086198
:020af400000000
:020af5000000ff
:020af6000000fe
:020af7000000fd
:020af8000000fc
:020af900d69a8b
:020afa00defb21
:020afb00841065
:020afc0018c31d
:020afd000000f7
:020afe000000f6
:020aff00294587
:020b0000d69a83
:020b0100422888
:020b020084303d
:020b030084105c
:020b04007bcfa5
:020b0500ad75cc
:020b060094b2a7
:020b07000000ec
:020b08000000eb
:020b090094b2a4
:020b0a00ffffeb
:020b0b009cf359
:020b0c004a4954
:020b0d0039e7c6
:020b0e00630c76
:020b0f0094b29e
:020b10000000e3
:020b11000000e2
:020b12004a692e
:020b1300c61802
:020b1400086176
:020b15008c5101
:020b160039e7bd
:020b170018e3e1
:020b1800bdf727
:020b19004a4947
:020b1a000000d9
:020b1b000000d8
:020b1c00294569
:020b1d00ef7d6a
:020b1e00d69a65
:020b1f007bcf8a
:020b20000000d3
:020b21000000d2
:020b22000000d1
:020b23000000d0
:020b24000000cf
:020b25000000ce
:020b26000000cd
:020b27000000cc
:020b28000000cb
:020b29000000ca
:020b2a004a4936
:020b2b006b4d10
:020b2c00294559
:020b2d004a4933
:020b2e0052aac9
:020b2f00f79e2f
:020b30000000c3
:020b3100084179
:020b32006b6de9
:020b330018c3e5
:020b34004a690c
:020b350052aac2
:020b3600f79e28
:020b37000000bc
:020b38000000bb
:020b39000000ba
:020b3a0042086f
:020b3b0052aabc
:020b3c004a6904
:020b3d0018c3db
:020b3e00738eb4
:020b3f000000b4
:020b40000000b3
:020b4100ef7d46
:020b420052aab5
:020b43004a491d
:020b440018c3d4
:020b4500c638b0
:020b46004a491a
:020b47000000ac
:020b48000000ab
:020b49000000aa
:020b4a000000a9
:020b4b00bdf7f4
:020b4c0039e787
:020b4d00d6ba16
:020b4e00294537
:020b4f000000a4
:020b50000000a3
:020b510094b25c
:020b5200b5b636
:020b5300ce5979
:020b540073ae7e
:020b55007bef34
:020b560039e77d
:020b57009cd32d
:020b5800949275
:020b590000009a
:020b5a00000099
:020b5b009cd329
:020b5c00ffff99
:020b5d00c618b8
:020b5e00f7bee0
:020b5f0039e774
:020b6000ffff95
:020b61009cd323
:020b6200000091
:020b630094926a
:020b6400949269
:020b6500ad756c
:020b66005aeb48
:020b67005aeb47
:020b6800ce7944
:020b6900c618ac
:020b6a009cf3fa
:020b6b00000088
:020b6c00000087
:020b6d00000086
:020b6e0018c3aa
:020b6f00e73c61
:020b7000e71c80
:020b7100d69a12
:020b7200000081
:020b7300000080
:020b740000007f
:020b750000007e
:020b760000007d
:020b770000007c
:020b7800086112
:020b79001082e8
:020b7a0042280f
:020b7b00ef7d0c
:020b7c00c61899
:020b7d00294508
:020b7e004a49e2
:020b7f00528a98
:020b80008430bf
:020b8100000072
:020b8200f7bebc
:020b8300ce7929
:020b840018c394
:020b8500294500
:020b86005acb48
:020b87008c518f
:020b880000006b
:020b890000006a
:020b8a00000069
:020b8b00000068
:020b8c00000067
:020b8d0018e36b
:020b8e0052aa69
:020b8f004a69b1
:020b900018c388
:020b91006b6d8a
:020b9200084118
:020b9300000060
:020b9400ef7df3
:020b9500528a82
:020b96004a49ca
:020b97002945ee
:020b9800c6187d
:020b99008c517d
:020b9a00210434
:020b9b004228ee
:020b9c000861ee
:020b9d00000056
:020b9e00000055
:020b9f00bdd7c0
:020ba0004a49c0
:020ba100000052
:020ba200000051
:020ba3004a49bd
:020ba400ce7908
:020ba500bdf79a
:020ba60094b207
:020ba700a53473
:020ba8009cd3dc
:020ba90094b204
:020baa00000049
:020bab00000048
:020bac00000047
:020bad009cf3b7
:020bae00ffff47
:020baf009cd3d5
:020bb0002945d5
:020bb10039e722
:020bb200ffff43
:020bb3009cd3d1
:020bb40000003f
:020bb50000003e
:020bb60000003d
:020bb7002124f7
:020bb800c6185d
:020bb9001082a8
:020bba008c713c
:020bbb0039e718
:020bbc00c61859
:020bbd004a49a3
:020bbe00000035
:020bbf00000034
:020bc0002945c5
:020bc100d6baa2
:020bc20039e711
:020bc300bdf77c
:020bc40000002f
:020bc50000002e
:020bc60000002d
:020bc70000002c
:020bc8000841e2
:020bc900dedb71
:020bca00318672
:020bcb00a5344f
:020bcc00ffdf49
:020bcd004a4993
:020bce004a4992
:020bcf004a6971
:020bd000528a47
:020bd10084306e
:020bd200000021
:020bd3000841d7
:020bd400ce79d8
:020bd50018c343
:020bd6002945af
:020bd7005acbf7
:020bd8008c711e
:020bd90000001a
:020bda00000019
:020bdb00000018
:020bdc00000017
:020bdd00000016
:020bde00000015
:020bdf00000014
:020be0008c5136
:020be1005acbed
:020be2002124cc
:020be30018c335
:020be400ce79c8
:020be5000841c5
:020be60000000d
:020be700ef7da0
:020be800528a2f
:020be9004a6957
:020bea004a4976
:020beb004a4975
:020bec009cd398
:020bed00a5144d
:020bee005aebc0
:020bef00dedb4b
:020bf0000841ba
:020bf100000002
:020bf200000001
:020bf300000000
:020bf4009492d9
:020bf50052aa02
:020bf600738efc
:020bf700ce59d5
:020bf800108269
:020bf900f79e65
:020bfa00b596ae
:020bfb004a4965
:020bfc000000f7
:020bfd000000f6
:020bfe000000f5
:020bff00a5341b
:020c0000fffff4
:020c0100ffdf13
:020c02005acbcb
:020c0300bdf73b
:020c0400fffff0
:020c0500a51434
:020c06000000ec
:020c07000000eb
:020c08000000ea
:020c09004a4956
:020c0a00dedb2f
:020c0b00c61809
:020c0c0018c30b
:020c0d00294577
:020c0e00738ee3
:020c0f0094b29d
:020c10000000e2
:020c11000000e1
:020c12004a494d
:020c1300bdd74b
:020c1400212499
:020c1500ad75bb
:020c1600422872
:020c17000000db
:020c18000000da
:020c19000000d9
:020c1a0008418f
:020c1b00a5141e
:020c1c00108244
:020c1d00294567
:020c1e00294566
:020c1f00294565
:020c200018c3f7
:020c21005aeb8c
:020c22008c51f3
:020c23000000cf
:020c2400f7be19
:020c2500ce7986
:020c260029455e
:020c270029455d
:020c28005aeb85
:020c2900f79e34
:020c2a000000c8
:020c2b000000c7
:020c2c000000c6
:020c2d000000c5
:020c2e000000c4
:020c2f000000c3
:020c30000000c2
:020c31000000c1
:020c32000000c0
:020c33008c51e2
:020c34005acb99
:020c3500212478
:020c360018c3e1
:020c3700ce7974
:020c3800084171
:020c39000000b9
:020c3a00ef7d4c
:020c3b00630c48
:020c3c0018c3db
:020c3d00294547
:020c3e00294546
:020c3f00294545
:020c4000108220
:020c4100a514f8
:020c4200084167
:020c43000000af
:020c44000000ae
:020c45000000ad
:020c4600422842
:020c4700ad7589
:020c4800422840
:020c4900f79e14
:020c4a007bef3e
:020c4b00ad55a5
:020c4c00c638a8
:020c4d004a4912
:020c4e000000a4
:020c4f000000a3
:020c50000000a2
:020c5100ad757f
:020c5200ffffa2
:020c530000207f
:020c5400b5b633
:020c5500bdf7e9
:020c5600ffff9e
:020c5700a534c2
:020c580000009a
:020c5900000099
:020c5a00000098
:020c5b004a4904
:020c5c00ce596f
:020c5d00c63897
:020c5e00632c05
:020c5f00e73c70
:020c6000defbb9
:020c6100294523
:020c6200000090
:020c630000008f
:020c640000008e
:020c65004a49fa
:020c660010a2da
:020c6700ce5964
:020c6800e73c67
:020c6900000089
:020c6a00000088
:020c6b00000087
:020c6c00000086
:020c6d008c51a8
:020c6e0031a6ad
:020c6f00c63885
:020c7000ce595b
:020c7100738e80
:020c72007bef16
:020c73004a49ec
:020c740000007e
:020c7500084134
:020c7600ce7935
:020c770029450d
:020c780029450c
:020c7900630c0a
:020c7a0042280e
:020c7b00000077
:020c7c00000076
:020c7d00000075
:020c7e00000074
:020c7f00000073
:020c8000000072
:020c8100000071
:020c8200000070
:020c830000006f
:020c840000006e
:020c850000006d
:020c86008c716f
:020c87005acb46
:020c88002945fc
:020c890018c38e
:020c8a00738e67
:020c8b00000067
:020c8c00000066
:020c8d000861fc
:020c8e0039c764
:020c8f00738e62
:020c9000ce593b
:020c9100c63863
:020c920031a689
:020c9300ef7df3
:020c940000005e
:020c950000005d
:020c960000005c
:020c970000005b
:020c9800e73c37
:020c9900ce5932
:020c9a0010a2a6
:020c9b004a49c4
:020c9c00000056
:020c9d00000055
:020c9e00ad5552
:020c9f0094922d
:020ca000000052
:020ca100000051
:020ca200ffdf72
:020ca300ffff51
:020ca400ffff50
:020ca500ad554b
:020ca60039e72c
:020ca70039c74b
:020ca800ffff4c
:020ca900b596fe
:020caa00000048
:020cab00000047
:020cac00000046
:020cad0094b2ff
:020cae0052aa48
:020caf008410af
:020cb0002124fd
:020cb10039e721
:020cb20052aa44
:020cb3009cd3d0
:020cb40000003e
:020cb50000003d
:020cb60000003c
:020cb7002945cd
:020cb800e71c37
:020cb900ef5ded
:020cba00c6185a
:020cbb00000037
:020cbc00000036
:020cbd00000035
:020cbe00000034
:020cbf00000033
:020cc000000032
:020cc100000031
:020cc200000030
:020cc30000002f
:020cc40000002e
:020cc50000002d
:020cc60000002c
:020cc7006b6d53
:020cc80018c34f
:020cc9002945bb
:020cca00630cb9
:020ccb002124e2
:020ccc00000026
:020ccd00000025
:020cce00000024
:020ccf00000023
:020cd000000022
:020cd100000021
:020cd200000020
:020cd30000001f
:020cd40000001e
:020cd50000001d
:020cd60000001c
:020cd70000001b
:020cd80000001a
:020cd900f79e84
:020cda005aebd3
:020cdb002945a9
:020cdc0018c33b
:020cdd00dedb5c
:020cde00000014
:020cdf00000013
:020ce000000012
:020ce100000011
:020ce200000010
:020ce30000000f
:020ce40000000e
:020ce50000000d
:020ce60000000c
:020ce70000000b
:020ce80000000a
:020ce900000009
:020cea00c6182a
:020ceb00841073
:020cec00e71c03
:020ced00294597
:020cee00000004
:020cef00000003
:020cf00094b2bc
:020cf100b5b696
:020cf20073aedf
:020cf3000000ff
:020cf4009cf36f
:020cf500ffffff
:020cf600fffffe
:020cf70018c320
:020cf8009cd38b
:020cf90039c7f9
:020cfa00fffffa
:020cfb00fffff9
:020cfc0094b2b0
:020cfd000000f5
:020cfe000000f4
:020cff00f7be3e
:020d00009492cb
:020d01004a693d
:020d020052aaf3
:020d03005acbc9
:020d0400d6ba5d
:020d0500defb13
:020d06002124a6
:020d07000000ea
:020d08000000e9
:020d09004a4955
:020d0a00bdf733
:020d0b00108254
:020d0c00a5340c
:020d0d008c5107
:020d0e000000e3
:020d0f000000e2
:020d10000000e1
:020d11000000e0
:020d12000000df
:020d13000000de
:020d14000000dd
:020d15000000dc
:020d16000000db
:020d17000000da
:020d1800738ed8
:020d190018c3fd
:020d1a00294569
:020d1b00630c67
:020d1c0042286b
:020d1d000000d4
:020d1e000000d3
:020d1f000000d2
:020d20000000d1
:020d21000000d0
:020d22000000cf
:020d23000000ce
:020d24000000cd
:020d25000000cc
:020d26000000cb
:020d27000000ca
:020d28000000c9
:020d29000000c8
:020d2a000000c7
:020d2b000000c6
:020d2c00ffffc7
:020d2d005aeb7f
:020d2e00294555
:020d2f0018c3e7
:020d300073aea0
:020d31000000c0
:020d32000000bf
:020d33000000be
:020d34000000bd
:020d35000000bc
:020d36000000bb
:020d37000000ba
:020d38000000b9
:020d39000000b8
:020d3a000000b7
:020d3b008c51d9
:020d3c00a534dc
:020d3d00108222
:020d3e00bdf7ff
:020d3f004a491f
:020d40000000b1
:020d41000000b0
:020d42000000af
:020d4300294540
:020d4400dedbf4
:020d450039c7ac
:020d4600632c1c
:020d47007bcf60
:020d4800ffffab
:020d49008430f4
:020d4a00949281
:020d4b00bdd712
:020d4c00ffffa7
:020d4d00ffffa6
:020d4e009cf314
:020d4f000000a2
:020d50000000a1
:020d51000000a0
:020d52004a69ec
:020d530073ae7d
:020d5400738e9c
:020d55006b4de4
:020d56004a4908
:020d5700defbc1
:020d580029452b
:020d5900000098
:020d5a00000097
:020d5b00000096
:020d5c00294527
:020d5d008c51b7
:020d5e00dedbda
:020d5f00d69a22
:020d6000000091
:020d6100000090
:020d620000008f
:020d630000008e
:020d640000008d
:020d650000008c
:020d660000008b
:020d670000008a
:020d6800084140
:020d6900738e87
:020d6a0018c3ac
:020d6b00294518
:020d6c005aeb40
:020d6d0042281a
:020d6e00000083
:020d6f00000082
:020d7000000081
:020d7100084137
:020d720000007f
:020d730000007e
:020d740000205d
:020d750000007c
:020d760000007b
:020d770000007a
:020d7800000079
:020d790008412f
:020d7a0008412e
:020d7b0008412d
:020d7c00000075
:020d7d00000074
:020d7e00000073
:020d7f00420828
:020d80005aeb2c
:020d8100294502
:020d820018c394
:020d8300dedbb5
:020d840000006d
:020d850000006c
:020d860000006b
:020d870000006a
:020d8800000069
:020d8900000068
:020d8a00000067
:020d8b00000066
:020d8c00000065
:020d8d00d69af4
:020d8e00dedbaa
:020d8f00420818
:020d90002945f3
:020d9100000060
:020d920000005f
:020d930000005e
:020d94004a69aa
:020d9500e71c59
:020d9600ef7def
:020d970018e35f
:020d9800bdd7c5
:020d9900ce7911
:020d9a0094b211
:020d9b00000056
:020d9c00000055
:020d9d0039e734
:020d9e00ffff55
:020d9f00ffff54
:020da000a53478
:020da100000050
:020da20000004f
:020da30000004e
:020da40094b207
:020da500bdf798
:020da6004a6998
:020da7007bcf00
:020da800843095
:020da9009cd3d9
:020daa00ad7525
:020dab00949220
:020dac00000045
:020dad00000044
:020dae002124fe
:020daf00ce591b
:020db0001082af
:020db10094b2fa
:020db2008c7142
:020db30000003e
:020db40000003d
:020db50000003c
:020db60000003b
:020db70000003a
:020db800000039
:020db900f7be83
:020dba00ce79f0
:020dbb002945c8
:020dbc004a6982
:020dbd005acb0f
:020dbe004228c9
:020dbf00000032
:020dc000000031
:020dc10084109c
:020dc20073ae0e
:020dc30000002e
:020dc400f7be78
:020dc500dedb73
:020dc60039e70b
:020dc7007bcfe0
:020dc800f7be74
:020dc9007befbe
:020dca0010a275
:020dcb004208dc
:020dcc00000025
:020dcd004a4991
:020dce00d6ba93
:020dcf00ef7db6
:020dd000000021
:020dd100000020
:020dd2008c7122
:020dd3005acbf9
:020dd4004a696a
:020dd5002945ae
:020dd600738e1a
:020dd70018c33f
:020dd8000020f9
:020dd900000018
:020dda00000017
:020ddb00000016
:020ddc00000015
:020ddd00000014
:020dde00ffff15
:020ddf0094b2cc
:020de0004228a7
:020de100ce59e9
:020de2002945a1
:020de30000000e
:020de40000000d
:020de5004a4979
:020de600c6182d
:020de700d6ba7a
:020de8007bcfbf
:020de900843054
:020dea004208bd
:020deb00ce59df
:020dec00294597
:020ded00000004
:020dee00000003
:020def00000002
:020df000a53428
:020df100ffff02
:020df200ffff01
:020df30094b2b8
:020df4000000fd
:020df5000000fc
:020df6000000fb
:020df70018c31f
:020df800d6ba69
:020df9000000f8
:020dfa00ce59d0
:020dfb00738ef5
:020dfc00ce79ae
:020dfd00294586
:020dfe000000f3
:020dff000000f2
:020e00000000f0
:020e0100294581
:020e0200f79e59
:020e030073aecc
:020e0400ce59c5
:020e05000000eb
:020e06000000ea
:020e0700e73cc6
:020e0800632c59
:020e0900c61809
:020e0a00bdf732
:020e0b00a5142c
:020e0c004a6931
:020e0d004a6930
:020e0e0052aae6
:020e0f00f79e4c
:020e10000000e0
:020e11000000df
:020e12000000de
:020e13007bef73
:020e1400b59691
:020e1500084192
:020e1600422870
:020e1700ce7992
:020e180039c7d8
:020e1900b5968c
:020e1a0042286c
:020e1b007bcf8b
:020e1c00841040
:020e1d00ce59ac
:020e1e0021248d
:020e1f00084188
:020e2000b59685
:020e2100e71ccc
:020e22000000ce
:020e23000000cd
:020e24000000cc
:020e25008c51ee
:020e2600528aee
:020e27004a6916
:020e28004a6915
:020e2900a534ee
:020e2a00bdf712
:020e2b00bdf711
:020e2c00632c35
:020e2d00e73ca0
:020e2e000000c2
:020e2f000000c1
:020e3000ce5999
:020e310073ae9e
:020e3200f79e29
:020e330029454f
:020e34000000bc
:020e35000000bb
:020e3600f7be05
:020e370018c3de
:020e3800defbdf
:020e39008c51da
:020e3a00843002
:020e3b00defbdc
:020e3c00defbdb
:020e3d00ad55b1
:020e3e0094928c
:020e3f000000b1
:020e40000000b0
:020e41000000af
:020e4200ffffb0
:020e4300ffffaf
:020e4400ffffae
:020e450073ae8a
:020e4600d69a3a
:020e47000000a9
:020e4800949282
:020e49004a4914
:020e4a00e71ca3
:020e4b00d6ba15
:020e4c00630c35
:020e4d006b6dcb
:020e4e00ce795b
:020e4f0094927b
:020e500094927a
:020e510000009f
:020e520000009e
:020e53004a69ea
:020e5400c618be
:020e5500084152
:020e5600a514e1
:020e57008430e5
:020e5800000098
:020e590094b251
:020e5a00108204
:020e5b00294527
:020e5c00294526
:020e5d00294525
:020e5e0018c3b7
:020e5f0052aa95
:020e60008430dc
:020e610000008f
:020e620000008e
:020e630000008d
:020e6400084143
:020e650039e76b
:020e6600e73c67
:020e67008c718c
:020e680008611f
:020e690018e38c
:020e6a008c51a9
:020e6b0042083b
:020e6c0008413b
:020e6d00420839
:020e6e008c51a5
:020e6f008430cd
:020e7000002060
:020e71008c7182
:020e72008410ea
:020e730039e75d
:020e7400084133
:020e750000007b
:020e760000007a
:020e7700000079
:020e7800ffff7a
:020e790052aa7b
:020e7a0018c39b
:020e7b00294507
:020e7c00294506
:020e7d00294505
:020e7e001082e0
:020e7f0094b22b
:020e8000000070
:020e8100ef5d23
:020e8200a514b5
:020e8300084124
:020e8400c6188e
:020e85004a69b8
:020e860000006a
:020e8700000069
:020e880094b222
:020e8900b5961c
:020e8a00738e65
:020e8b00632cd6
:020e8c0039c764
:020e8d0010a2b1
:020e8e00e71c5f
:020e8f002945f3
:020e9000000060
:020e910000005f
:020e920000005e
:020e93009cd3ee
:020e9400ffff5e
:020e9500ffff5d
:020e9600ffff5c
:020e9700630cea
:020e98008c715b
:020e990039e737
:020e9a00ffff58
:020e9b00ffff57
:020e9c002945e6
:020e9d0021240e
:020e9e00ef7de6
:020e9f004228e7
:020ea00039c750
:020ea1006b4d97
:020ea2004a699b
:020ea30000004d
:020ea40000004c
:020ea50000004b
:020ea60018c36f
:020ea700e73c26
:020ea80039e728
:020ea900000047
:020eaa008c7149
:020eab008410b1
:020eac00632cb5
:020ead005aebfe
:020eae00b596f7
:020eaf00c63843
:020eb00073ae1f
:020eb1004208f5
:020eb20000003e
:020eb30000003d
:020eb40000003c
:020eb50000003b
:020eb60000003a
:020eb700000039
:020eb800000038
:020eb900000037
:020eba00000036
:020ebb00000035
:020ebc00000034
:020ebd00000033
:020ebe00000032
:020ebf00000031
:020ec000000030
:020ec10000002f
:020ec20000002e
:020ec30000002d
:020ec40000002c
:020ec50000002b
:020ec60000002a
:020ec700000029
:020ec800000028
:020ec900000027
:020eca00000026
:020ecb004228bb
:020ecc0073ae03
:020ecd00c63825
:020ece00b596d7
:020ecf005aebdc
:020ed000632c91
:020ed10084108b
:020ed2008c7121
:020ed30000001d
:020ed40039e7fc
:020ed500e73cf8
:020ed60018c33f
:020ed700f7be64
:020ed800000018
:020ed900000017
:020eda002945a8
:020edb00d6ba85
:020edc007bcfca
:020edd0094b2cd
:020ede00528a36
:020edf00bdd77d
:020ee000c63812
:020ee1004a497c
:020ee20000000e
:020ee30000000d
:020ee40000000c
:020ee500ad5509
:020ee600ffff0c
:020ee700ffff0b
:020ee800ffff0a
:020ee90018e30c
:020eea00528a2a
:020eeb0039e7e5
:020eec00ffff06
:020eed00ffff05
:020eee00ffff04
:020eef009cd392
:020ef000000000
:020ef10052aa03
:020ef20010826c
:020ef300d69a8d
:020ef400bdf748
:020ef50094b2b5
:020ef6000000fa
:020ef7000000f9
:020ef80094b2b2
:020ef900528a1b
:020efa0042288c
:020efb00dedb3c
:020efc00bdf740
:020efd000000f3
:020efe000000f2
:020eff00086188
:020f00000841a6
:020f01000000ee
:020f02000000ed
:020f03000000ec
:020f04000000eb
:020f05000000ea
:020f06000000e9
:020f07000000e8
:020f08000000e7
:020f09000000e6
:020f0a000000e5
:020f0b000000e4
:020f0c000000e3
:020f0d000000e2
:020f0e000000e1
:020f0f000000e0
:020f10000000df
:020f11000000de
:020f12000000dd
:020f13000000dc
:020f14000000db
:020f15000000da
:020f16000000d9
:020f17000000d8
:020f18000000d7
:020f19000000d6
:020f1a000000d5
:020f1b000000d4
:020f1c000000d3
:020f1d000000d2
:020f1e000000d1
:020f1f000000d0
:020f2000084186
:020f2100086165
:020f22000000cd
:020f23000000cc
:020f2400bdf717
:020f2500dedb11
:020f260042285f
:020f2700528aec
:020f280094b281
:020f29000000c6
:020f2a000000c5
:020f2b004a6911
:020f2c00c638c5
:020f2d00dedb09
:020f2e00c618e3
:020f2f00738ebf
:020f300073ae9e
:020f3100dedb05
:020f320029454f
:020f3300f7be07
:020f34000000bb
:020f35000000ba
:020f360094b273
:020f3700ffffba
:020f3800ffffb9
:020f3900ffffb8
:020f3a00ffffb7
:020f3b00a514fb
:020f3c00002093
:020f3d00bdf7fe
:020f3e00ffffb3
:020f3f00ffffb2
:020f4000ffffb1
:020f4100ad55ac
:020f42000000ad
:020f43000000ac
:020f44000000ab
:020f4500f7bef5
:020f46005aeb64
:020f47004a69f5
:020f48000000a7
:020f49000000a6
:020f4a00f7bef0
:020f4b004a69f1
:020f4c00630c34
:020f4d000000a2
:020f4e00c618c3
:020f4f00ce7959
:020f500000009f
:020f510000009e
:020f520000009d
:020f530000009c
:020f540000009b
:020f550000009a
:020f5600000099
:020f5700000098
:020f5800000097
:020f5900000096
:020f5a00000095
:020f5b00000094
:020f5c00000093
:020f5d00000092
:020f5e00000091
:020f5f00000090
:020f600000008f
:020f610000008e
:020f620000008d
:020f630000008c
:020f640000008b
:020f650000008a
:020f6600000089
:020f6700000088
:020f6800000087
:020f6900000086
:020f6a00000085
:020f6b00000084
:020f6c00000083
:020f6d00000082
:020f6e00000081
:020f6f00000080
:020f700000007f
:020f710000007e
:020f720000007d
:020f730000007c
:020f740000007b
:020f7500ce7933
:020f7600c6189b
:020f7700000078
:020f7800bdf7c3
:020f7900212431
:020f7a00f7bec0
:020f7b00000074
:020f7c00000073
:020f7d004a69bf
:020f7e0073ae50
:020f7f00422806
:020f80008c7172
:020f8100ce7927
:020f8200ce5946
:020f8300ce7925
:020f84004a69b8
:020f850000006a
:020f8600000069
:020f8700000068
:020f8800a514ae
:020f8900ffff68
:020f8a00ffff67
:020f8b00ffff66
:020f8c00ffff65
:020f8d0039e742
:020f8e007bcf17
:020f8f0039e740
:020f9000ffff61
:020f9100ffff60
:020f9200ffff5f
:020f9300ffff5e
:020f940094b215
:020f950000005a
:020f9600000059
:020f9700000058
:020f98002945e9
:020f9900d69ae6
:020f9a00ef5d09
:020f9b00000054
:020f9c00000053
:020f9d00f7be9d
:020f9e002945e3
