:020000040000fa
:020000005aebb9
:020001009492d7
:0200020010a24a
:0200030029458d
:020004008c71fd
:02000500632c6a
:02000600b5b68d
:02000700dedb3e
:02000800dedb3d
:0200090010a243
:02000a00fffff6
:02000b00ffdf15
:02000c00ffdf14
:02000d0052aaf5
:02000e00528a14
:02000f005aebaa
:02001000738eed
:02001100738eec
:020012004a6939
:02001300630c7c
:02001400738ee9
:020015005acbc4
:02001600738ee7
:02001700a5142e
:02001800630c77
:02001900630c76
:02001a00841050
:02001b009cf354
:02001c0018c307
:02001d0018c306
:02001e0018e3e5
:02001f00296551
:020020004a494b
:0200210073aebc
:02002200ad75ba
:02002300bdd747
:02002400ce7993
:02002500c618fb
:0200260008418f
:0200270008616e
:0200280031861f
:0200290031861e
:02002a0031a6fd
:02002b00ce798c
:02002c00108240
:02002d0021248c
:02002e009cf341
:02002f00bdd73b
:020030007bef64
:0200310039c7cd
:020032002104a7
:02003300843017
:02003400bdd736
:020035005aeb84
:020036002104a3
:02003700bdf713
:0200380031a6ef
:02003900dedb0c
:02003a00ffdfe6
:02003b00ffffc5
:02003c000020a2
:02003d000020a1
:02003e00528ae4
:02003f00632c30
:02004000738ebd
:020041008c71c0
:02004200420872
:0200430094b275
:020044007bef50
:020045005acb94
:020046008c71bb
:020047007bef4d
:02004800630c47
:020049006b6ddd
:02004a0094928e
:02004b00ad55b1
:02004c00ad55b0
:02004d0073ae90
:02004e00a514f7
:02004f00c618d1
:020050008c51d1
:020051005acb88
:0200520039e78c
:020053006b4df3
:02005400bdd716
:02005500ffdfcb
:02005600ffdfca
:02005700ffdfc9
:02005800ef7d3a
:02005900e73c82
:02005a00ad55a2
:02005b00a534ca
:02005c004a69ef
:02005d006b6dc9
:02005e00b59655
:02005f00ce5978
:02006000949278
:020061009cf30e
:02006200738e9b
:0200630073ae7a
:02006400ce5973
:020065009cd32a
:020066008c719b
:020067008c719a
:020068007bef2c
:02006900632c06
:02006a008430e0
:02006b00d6ba03
:02006c00d6ba02
:02006d008430dd
:02006e008410fc
:02006f00630c20
:020070008c51b1
:020071008c51b0
:02007200528ab0
:020073007bcf41
:020074008c718d
:020075005aeb44
:020076008c51ab
:020077007bcf3d
:02007800630c17
:020079003186ce
:02007a007bcf3a
:02007b00ad5581
:02007c006b6daa
:02007d00a514c8
:02007e00a534a7
:02007f0094b239
:0200800073ae5d
:020081005acb58
:020082007bcf32
:020083002965ed
:020084008430c6
:02008500ffdf9b
:02008600ffdf9a
:02008700ffdf99
:02008800ef5d2a
:02008900ef5d29
:02008a00bdf7c0
:02008b0021242e
:02008c009cf3e3
:02008d00bdd7dd
:02008e00ce5949
:02008f003186b8
:020090009cf3df
:02009100a53494
:02009200738e6b
:0200930073ae4a
:020094006b4db2
:020095009cf3da
:02009600ce5941
:0200970042081d
:02009800949240
:020099008410d1
:02009a008430b0
:02009b00d6bad3
:02009c00d6bad2
:02009d00c61883
:02009e008410cc
:02009f00630cf0
:0200a000738e5d
:0200a100738e5c
:0200a20094b216
:0200a300632ccc
:0200a4006b4da2
:0200a500738e58
:0200a6008c517b
:0200a7007bcf0d
:0200a80073ae35
:0200a9006b6d7d
:0200aa004a69a1
:0200ab008c7156
:0200ac0021240d
:0200ad0021240c
:0200ae0018e355
:0200af0094b209
:0200b00039c74e
:0200b1004a49ba
:0200b2007bcf02
:0200b300ad7529
:0200b400e71c47
:0200b500e73c26
:0200b6000861df
:0200b7001082b5
:0200b80018c36b
:0200b90039e725
:0200ba0073ae23
:0200bb0094921d
:0200bc002945d4
:0200bd00a53468
:0200be0073ae1f
:0200bf008c5162
:0200c0009cd3cf
:0200c100a53464
:0200c2009cd3cd
:0200c300738e3a
:0200c400c6185c
:0200c500b596ee
:0200c6008c713b
:0200c700949211
:0200c800ce590f
:0200c900defb5c
:0200ca00f79e9f
:0200cb00ffff35
:0200cc00002012
:0200cd00002011
:0200ce006b4d78
:0200cf00632ca0
:0200d0006b6d56
:0200d100630cbe
:0200d20094b2e6
:0200d3004a6978
:0200d4007bcfe0
:0200d500738e28
:0200d600738e27
:0200d7007befbd
:0200d800632c97
:0200d900632c96
:0200da00632c95
:0200db00630cb4
:0200dc002104fd
:0200dd004208d7
:0200de004228b6
:0200df0084108b
:0200e0002124d9
:0200e1004a498a
:0200e2007bcfd2
:0200e300a51462
:0200e400e71c17
:0200e500e73cf6
:0200e6000841cf
:0200e700108285
:0200e800296588
:0200e900296587
:0200ea004228aa
:0200eb00ce79cc
:0200ec0084305e
:0200ed0084107d
:0200ee0073aeef
:0200ef00bdd77b
:0200f000ce79c7
:0200f1004228a3
:0200f2009cd39d
:0200f300738e0a
:0200f400528a2e
:0200f500843055
:0200f600bdd774
:0200f7008c710a
:0200f800841072
:0200f900ce79be
:0200fa00ffff06
:0200fb00ffff05
:0200fc000020e2
:0200fd006b6d29
:0200fe00a53427
:0200ff007bcfb5
:02010000630c8e
:020101008c71ff
:02010200318644
:02010300632c6b
:0201040073aed8
:020105005acbd3
:02010600738ef6
:020107004208ac
:0201080073aed4
:020109006b4d3c
:02010a00b5b688
:02010b009cd383
:02010c009cd382
:02010d007bef86
:02010e00a53416
:02010f0094b2a8
:02011000630c7e
:0201110039c7ec
:020112004a6938
:0201130029655c
:02011400bdf735
:02011500f79e53
:02011600ffdf09
:02011700f7be31
:02011800e71ce2
:02011900ce59bd
:02011a00d69a73
:02011b0084302e
:02011c00632c52
:02011d0073aebf
:02011e00294571
:02011f0084302a
:02012000a51424
:0201210073aebb
:0201220052aadf
:020123009cd36b
:020124009492b3
:0201250094b292
:0201260010a225
:0201270018e3db
:0201280073aeb4
:02012900a5141b
:02012a00c618f5
:02012b00dedb19
:02012c00d6ba41
:02012d00294562
:02012e0094b289
:02012f005aeb89
:02013000738ecc
:0201310073aeab
:020132004a6918
:02013300841036
:02013400632c3a
:020135005aeb83
:020136007bef5d
:020137006b6dee
:0201380039c7c5
:020139006b4d0c
:02013a00a5140a
:02013b00ad75a0
:02013c009cd352
:02013d007bef56
:02013e00a534e6
:02013f00a534e5
:0201400039e79d
:020141004a4929
:020142004a6908
:02014300420870
:02014400bdd725
:02014500f7be03
:02014600ffdfd9
:02014700f7be01
:02014800ef5d69
:02014900d69a44
:02014a008430ff
:02014b007bef48
:02014c009cf322
:02014d00bdd71c
:02014e008430fb
:02014f00422844
:02015000949287
:02015100ad758a
:02015200086142
:0201530010a2f8
:02015400a534d0
:02015500949282
:02015600528acb
:02015700c618c8
:02015800841011
:0201590094927e
:02015a0021245e
:02015b00bdf7ee
:02015c00dedbe8
:02015d00b59655
:02015e0094b259
:02015f005aeb59
:0201600052aaa1
:020161007bef32
:020162004a69e8
:020163003186e3
:02016400630c2a
:020165004a4905
:020166007bef2d
:02016700b5964b
:020168003186de
:0201690031a6bd
:02016a00422829
:02016b007bef28
:02016c0021046c
:02016d00630c21
:02016e00bdd7fb
:02016f0094b248
:02017000212448
:02017100212447
:02017200630c1c
:02017300bdd7f6
:02017400ce7942
:02017500d69a18
:02017600dedbce
:02017700294518
:0201780018c3aa
:020179003186cd
:02017a00632cf4
:02017b009cf3f3
:02017c00bdd7ed
:02017d00c618a2
:02017e003186c8
:02017f003186c7
:02018000b59632
:02018100d69a0c
:02018200084132
:02018300084131
:020184001082e7
:020185009cd309
:020186004a49e4
:02018700632ce7
:02018800ce792e
:020189009cd305
:02018a009cf3e4
:02018b007bef08
:02018c0094b22b
:02018d0094924a
:02018e0010a2bd
:02018f00d6bade
:0201900073ae4c
:020191007bef02
:02019200528a8f
:020193004a69b7
:020194005aeb24
:020195004a49d5
:02019600212422
:02019700c61888
:020198006b6d8d
:0201990039e744
:02019a00b59618
:02019b0094923c
:02019c0021043c
:02019d0021241b
:02019e00a514a6
:02019f00a514a5
:0201a000212418
:0201a100210437
:0201a2002965cd
:0201a30094b214
:0201a400bdd7c5
:0201a500d69ae8
:0201a600ce5930
:0201a70010a2a4
:0201a8004a69a2
:0201a9004a69a1
:0201aa004a69a0
:0201ab00b59607
:0201ac00bdf79d
:0201ad00c63852
:0201ae00318698
:0201af0031a677
:0201b000d69add
:0201b100defb73
:0201b200084102
:0201b300084101
:0201b40010a297
:0201b500d6bab8
:0201b600528a6b
:0201b7004a49b3
:0201b8004228db
:0201b900ce79fd
:0201ba00b596f8
:0201bb0094b2fc
:0201bc0094921b
:0201bd004a698d
:0201be00a53466
:0201bf00d6baae
:0201c000d6baad
:0201c100528a60
:0201c2004a6988
:0201c300632cab
:0201c4004a49a6
:0201c5004a49a5
:0201c600c63839
:0201c700d6baa6
:0201c800210410
:0201c90021040f
:0201ca0084307f
:0201cb0031867b
:0201cc0073ae10
:0201cd006b6d58
:0201ce0084109b
:0201cf00a53455
:0201d0002124e8
:0201d10029659e
:0201d2004a4998
:0201d3006b4d72
:0201d400ce79e2
:0201d500ce79e1
:0201d600dedb6e
:0201d700108294
:0201d80010a273
:0201d900ce59fd
:0201da00d69ab3
:0201db00defb49
:0201dc004a696e
:0201dd0073aeff
:0201de00b596d4
:0201df00d69aae
:0201e0000841d4
:0201e1000841d3
:0201e200defb42
:0201e300defb41
:0201e4000861b0
:0201e5000841cf
:0201e600c63819
:0201e7009cd3a7
:0201e80073aef4
:0201e900841080
:0201ea00b596c8
:0201eb00d6ba82
:0201ec00d6ba81
:0201ed00d69aa0
:0201ee00ef5dc3
:0201ef008c5131
:0201f000bdf759
:0201f10052aa10
:0201f200ad75e9
:0201f3004228a0
:0201f4005acbe4
:0201f5006b6d30
:0201f60052aa0b
:0201f700000006
:0201f8006b6d2d
:0201f900632c75
:0201fa00d69a93
:0201fb007bef98
:0201fc008c5124
:0201fd0073aedf
:0201fe00ad75dd
:0201ff00a51445
:02020000318645
:020201002124b6
:0202020029656c
:020203004a4966
:0202040052aafc
:02020500ce79b0
:02020600e73cd3
:02020700d69a85
:02020800dedb3b
:02020900d6ba63
:02020a00ce79ab
:02020b009492cb
:02020c004a495d
:02020d0031a618
:02020e00d69a7e
:02020f00b5b682
:02021000086183
:02021100086182
:02021200e71ce7
:02021300b5b67e
:0202140010a236
:0202150008419e
:02021600b5b67b
:02021700d6ba55
:02021800841050
:020219009492bd
:02021a00c61804
:02021b00d6ba51
:02021c00d69a70
:02021d00d6ba4f
:02021e00defb05
:02021f0010a22b
:02022000bdd748
:0202210018e3e0
:0202220073aeb9
:02022300630c6a
:0202240073aeb7
:020225006b4d1f
:020226000020b6
:020227000000d5
:0202280039e7b4
:0202290008418a
:02022a00d69a62
:02022b00294563
:02022c004a493d
:02022d004a493c
:02022e0018e3d3
:02022f0031a6f6
:02023000a534f3
:02023100c618ed
:02023200ad55c8
:02023300ad55c7
:020234007bef5e
:0202350094b281
:0202360010a214
:0202370010a213
:0202380042087a
:02023900420879
:02023a0084102e
:02023b006b4d09
:02023c0052aac4
:02023d00d6ba2f
:02023e00a534e5
:02023f00bdd729
:0202400010a20a
:020241009cd34c
:02024200bdd726
:0202430052aabd
:020244009cd349
:02024500b5966c
:02024600bdd722
:02024700b5966a
:02024800b59669
:02024900b59668
:02024a005aeb6d
:02024b007bef47
:02024c00a534d7
:02024d0094b269
:02024e00b59663
:02024f00bdd719
:0202500029453e
:0202510094b265
:020252004a4917
:020253004a4916
:020254006b4df0
:02025500bdd713
:02025600841012
:0202570018c3ca
:0202580021047f
:0202590021047e
:02025a00defbc9
:02025b008430ed
:02025c0039e780
:02025d0039c79f
:02025e0018e3a3
:02025f004a69ea
:02026000422832
:0202610094b255
:020262008c51bd
:02026300ad5597
:02026400ad5596
:02026500841003
:02026600bdd702
:020267006b6dbd
:020268003186dd
:020269009cf304
:02026a0094b24c
:02026b0052aa95
:02026c00d6ba00
:02026d00c618b1
:02026e00ce5967
:02026f008430d9
:02027000defbb3
:02027100b59640
:02027200ce5963
:02027300b5963e
:02027400bdf7d4
:02027500dedbce
:0202760010a2d4
:02027700ce595e
:02027800d6baf4
:020279008430cf
:02027a0094b23c
:02027b0094925b
:02027c007bef16
:02027d003186c8
:02027e00bdd7ea
:02027f0029450f
:02028000b59631
:020281002965ed
:020282004a49e7
:0202830073ae58
:020284004a69c5
:02028500a514be
:020286006b4dbe
:0202870073ae54
:020288005aeb2f
:0202890031a69c
:02028a00e73c4f
:02028b00e73c4e
:02028c0094b22a
:02028d00632ce0
:02028e00422804
:02028f00949247
:020290006b4db4
:02029100949245
:02029200420820
:02029300210444
:0202940018c38d
:0202950018e36c
:02029600528a8a
:02029700a5348c
:02029800defb8b
:02029900d6bad3
:02029a008430ae
:02029b008430ad
:02029c00c63862
:02029d00defb86
:02029e00defb85
:02029f00f79ec8
:0202a000ffff5e
:0202a100f7bea6
:0202a200ffdf7c
:0202a300f7bea4
:0202a400f7bea3
:0202a500ffff59
:0202a600ef7dea
:0202a700002035
:0202a800000054
:0202a900000053
:0202aa000861e9
:0202ab0010a29f
:0202ac00ce5929
:0202ad00d6babf
:0202ae00a53475
:0202af0094b207
:0202b000630cdd
:0202b10031a674
:0202b200210425
:0202b3004a6996
:0202b4006b4d90
:0202b500a5346e
:0202b600ad7524
:0202b7008c7148
:0202b8002965b6
:0202b90021041e
:0202ba00f79ead
:0202bb00000041
:0202bc009cd3d1
:0202bd007bcff5
:0202be00738e3d
:0202bf00738e3c
:0202c00094b2f6
:0202c1004a6988
:0202c2004a6987
:0202c300210414
:0202c40018c35d
:0202c50018c35c
:0202c6004a6983
:0202c700a5345c
:0202c8009cd3c5
:0202c900d69ac3
:0202ca00ce79eb
:0202cb0031a65a
:0202cc00ad552e
:0202cd00defb56
:0202ce0010a27c
:0202cf00f79e98
:0202d000ef5de0
:0202d100ffff2d
:0202d200f7be75
:0202d300f7be74
:0202d400ffdf4a
:0202d500ffff29
:0202d600ffdf48
:0202d700000025
:0202d800000024
:0202d900000023
:0202da00108290
:0202db002945b3
:0202dc00ce59f9
:0202dd00ce79d8
:0202de00ad75fc
:0202df00b5b6b2
:0202e00039c71c
:0202e10039c71b
:0202e20018e31f
:0202e3004a6966
:0202e400841084
:0202e500ad75f5
:0202e6008c7119
:0202e7009cf386
:0202e8004a4981
:0202e90031a63c
:0202ea00000012
:0202eb00000011
:0202ec006b6d38
:0202ed006b6d37
:0202ee006b6d36
:0202ef009cf37e
:0202f0009cd39d
:0202f100bdd777
:0202f200528a2e
:0202f300528a2d
:0202f40018e30d
:0202f50039e7e7
:0202f600294598
:0202f7007bef9b
:0202f8006b6d2c
:0202f90052aa07
:0202fa00d6ba72
:0202fb00dedb48
:0202fc00dedb47
:0202fd00d69a8f
:0202fe00d69a8e
:0202ff00843049
:02030000defb22
:02030100f79e65
:02030200ef7d8d
:02030300ef7d8c
:02030400ef5dab
:02030500dedb3d
:02030600dedb3c
:02030700dedb3b
:02030800c638f5
:02030900dedb39
:02030a00fffff3
:02030b00fffff2
:02030c00294581
:02030d0084105a
:02030e0029655f
:02030f005aeba7
:020310005acbc6
:02031100ad55e8
:0203120094b2a3
:0203130094b2a2
:02031400630c78
:02031500630c77
:02031600738ee4
:02031700738ee3
:02031800528a07
:02031900dedb29
:02031a00f79e4c
:02031b000000e0
:02031c00738ede
:02031d00632c4f
:02031e00e73cba
:02031f00e71cd9
:020320009cd36c
:020321007bef70
:02032200528afd
:02032300528afc
:0203240018c3fc
:02032500212491
:0203260039c7d5
:0203270039c7d4
:020328004a6920
:0203290052aad6
:02032a00bdd73d
:02032b00bdd73c
:02032c00c638d1
:02032d00dedb15
:02032e00dedb14
:02032f00843018
:02033000defbf2
:02033100f79e35
:02033200ef7d5d
:02033300ef5d7c
:02033400e71cc4
:02033500294558
:02033600ce797e
:02033700c638c6
:02033800dedb0a
:02033900ce599b
:02033a000020a1
:02033b000000c0
:02033c0018e3c4
:02033d004a690b
:02033e0039c7bd
:02033f0031a6e5
:02034000738eba
:020341007bef50
:02034200a51400
:02034300841024
:020344006b4dff
:0203450042284c
:02034600630c46
:020347009cf325
:020348008430ff
:02034900defbd9
:02034a0010821f
:02034b000000b0
:02034c00296521
:02034d00738ead
:02034e00ffffaf
:02034f00ffffae
:02035000ffdfcd
:02035100210485
:02035200c618cb
:020353006b4df0
:020354006b6dcf
:02035500841012
:0203560039e785
:0203570039e784
:0203580039c7a3
:0203590018c3c7
:02035a00294533
:02035b00528ac4
:02035c00528ac3
:02035d00a534c5
:02035e00d6ba0d
:02035f00ce5975
:02036000dedbe2
:02036100ce5973
:02036200ce5972
:02036300dedbdf
:02036400dedbde
:02036500d6ba06
:02036600d6ba05
:02036700b59649
:02036800a534ba
:02036900bdd7fe
:02036a00294523
:02036b009cd321
:02036c0039e76f
:02036d00294520
:02036e00210468
:02036f002965fe
:02037000528aaf
:02037100bdf7d6
:02037200bdd7f5
:020373009cf3f9
:0203740039c787
:0203750039e766
:0203760018e38a
:02037700294516
:02037800d6baf3
:02037900d6baf2
:02037a00000081
:02037b001082ee
:02037c00738e7e
:02037d00630c0f
:02037e0000205d
:02037f0000205c
:020380008430c7
:0203810029450c
:020382009cf3ea
:020383008c717b
:0203840094b231
:0203850031a69f
:020386007bcf2b
:0203870039c774
:0203880039e753
:0203890018c397
:02038a006b4db9
:02038b00528a94
:02038c0052aa73
:02038d009cd3ff
:02038e00c6188f
:02038f009cd3fd
:020390006b6d93
:020391008430b6
:02039200b5b6fe
:02039300ce5941
:02039400bdf7b3
:020395006b6d8e
:02039600bdd7d1
:02039700528a88
:020398009cd3f4
:02039900b59617
:02039a00a53488
:02039b009cf3d1
:02039c0039e73f
:02039d002945f0
:02039e002965cf
:02039f00420812
:0203a000a53482
:0203a100ce7913
:0203a200b5b6ee
:0203a3009cf3c9
:0203a40039e737
:0203a50031a67f
:0203a60042080b
:0203a700ce790d
:0203a800d69ae3
:0203a900d6bac2
:0203aa00000051
:0203ab00f79ebb
:0203ac00630ce0
:0203ad0073ae2d
:0203ae00defb74
:0203af0010a29a
:0203b00000202b
:0203b100ffff4c
:0203b2002945db
:0203b3004a49b5
:0203b4008c516a
:0203b5007befdc
:0203b6006b4d8d
:0203b700632cb5
:0203b80073ae22
:0203b9004a49af
:0203ba00738e40
:0203bb005acb1b
:0203bc006b6d67
:0203bd006b4d86
:0203be006b4d85
:0203bf00318685
:0203c00094b2f5
:0203c10094b2f4
:0203c2008410a5
:0203c3008410a4
:0203c40094b2f1
:0203c50031867f
:0203c6006b4d7d
:0203c70094b2ee
:0203c80094920d
:0203c9008c7135
:0203ca005acb0c
:0203cb00738e2f
:0203cc008c5152
:0203cd004a499b
:0203ce004a697a
:0203cf004a6979
:0203d000a53452
:0203d100a51471
:0203d200b5b6be
:0203d300ad7506
:0203d400949201
:0203d500841092
:0203d600bdf771
:0203d700defb4b
:0203d800ce59fc
:0203d900dedb69
:0203da00000021
:0203db00000020
:0203dc00630cb0
:0203dd0031a647
:0203de008c5140
:0203df008c513f
:0203e000ffdf3d
:0203e1000020fa
:0203e200843065
:0203e3004208ce
:0203e40052aa1b
:0203e5008c5139
:0203e600c61837
:0203e7006b4d5c
:0203e8006b4d5b
:0203e9004a497f
:0203ea00738e10
:0203eb00630ca1
:0203ec005aebca
:0203ed006b6d36
:0203ee005aebc8
:0203ef005aebc7
:0203f0007bcfc1
:0203f1007bcfc0
:0203f2007bef9f
:0203f300632c79
:0203f4007bcfbd
:0203f5009cf377
:0203f6005aebc0
:0203f7006b6d2c
:0203f800630c94
:0203f9006b6d2a
:0203fa005acbdc
:0203fb008c7103
:0203fc00738efe
:0203fd00bdd76a
:0203fe004a694a
:0203ff00632c6d
:020400004208b0
:020401009cf36a
:02040200ad75d6
:0204030052aafb
:02040400b5b68b
:0204050031a61e
:02040600ce79ad
:02040700dedb3a
:02040800d6ba62
:02040900d6ba61
:02040a000000f0
:02040b000000ef
:02040c00422884
:02040d0039e7cd
:02040e00ef5da0
:02040f00ef7d7f
:02041000ffdf0c
:02041100ffdf0b
:02041200843034
:0204130031a610
:020414004a6933
:020415002104c0
:02041600738ee3
:020417004a6930
:02041800a51429
:02041900bdd74d
:02041a007bcf96
:02041b009492b9
:02041c004a494b
:02041d00738edc
:02041e005acbb7
:02041f004a4948
:02042000738ed9
:0204210039c7d9
:020422005aeb93
:0204230073aeb6
:0204240042286c
:0204250073aeb4
:02042600738ed3
:02042700738ed2
:020428005acbad
:02042900738ed0
:02042a007bcf86
:02042b009492a9
:02042c00632c3f
:02042d00632c3e
:02042e0094b286
:02042f005aeb86
:020430008c51ed
:020431006b6df1
:020432008c71cb
:02043300841033
:020434006b6dee
:02043500f79e30
:0204360008417b
:020437000020a3
:02043800f7be0d
:02043900f7be0c
:02043a000000c0
:02043b000000bf
:02043c00294550
:02043d00318606
:02043e00ef5d70
:02043f00ef7d4f
:02044000f79e25
:02044100f7be04
:02044200843004
:02044300ce5990
:02044400528ada
:02044500630c46
:02044600630c45
:02044700422849
:020448007bcf68
:0204490094b26b
:02044a0094b26a
:02044b006b4df7
:02044c00bdd71a
:02044d005acb88
:02044e007bcf62
:02044f005acb86
:0204500052aaae
:020451004a69f6
:02045200630c39
:0204530042283d
:02045400738ea5
:0204550073ae84
:0204560073ae83
:020457007bcf59
:02045800a514e9
:0204590094927b
:02045a00a514e7
:02045b007bcf55
:02045c00528ac2
:02045d004a490a
:02045e00738e9b
:02045f008c719e
:020460005acb75
:020461008c51bc
:02046200b5b62d
:020463009cd328
:02046400dedbdd
:02046500000095
:02046600002074
:02046700ffdfb5
:02046800f7bedd
:02046900f7bedc
:02046a00000090
:02046b0000008f
:02046c00632cff
:02046d00420843
:02046e00084143
:02046f00086122
:02047000d6bafa
:02047100d6baf9
:02047200e73c65
:02047300e73c64
:020474008430d2
:0204750052aa89
:020476002965f6
:02047700420839
:020478005acb5d
:020479005acb5c
:02047a00a514c7
:02047b00420835
:02047c004a69cb
:02047d005aeb38
:02047e0031a6a5
:02047f003186c4
:02048000528a9e
:0204810042082f
:0204820042082e
:0204830031a6a0
:020484006b4dbe
:02048500528a99
:0204860042082a
:020487006b4dbb
:020488006b4dba
:020489006b6d99
:02048a00632ce1
:02048b0094b229
:02048c004a69bb
:02048d004a49da
:02048e005aeb27
:02048f005aeb26
:020490007bcf20
:02049100b5b6fe
:02049200bdd7d4
:02049300defb8e
:0204940008411d
:02049500002045
:0204960008411b
:0204970008411a
:02049800f7bead
:02049900f7beac
:02049a00000060
:02049b0000005f
:02049c00632ccf
:02049d00420813
:02049e00084113
:02049f00084112
:0204a000d6baca
:0204a100d6bac9
:0204a200e73c35
:0204a300e73c34
:0204a400dedb9d
:0204a5002945e7
:0204a60031a67d
:0204a7004a49c0
:0204a8005acb2d
:0204a9005acb2c
:0204aa009cd3e1
:0204ab00632cc0
:0204ac005aeb09
:0204ad004a699a
:0204ae00a51493
:0204af007befe1
:0204b000420800
:0204b100528a6d
:0204b2008410b4
:0204b3009cd3d8
:0204b4008410b2
:0204b5008410b1
:0204b60031868d
:0204b70094b2fd
:0204b80094b2fc
:0204b90094921b
:0204ba009cf3b1
:0204bb008c7142
:0204bc0073ae1d
:0204bd004a49aa
:0204be00630ccd
:0204bf00630ccc
:0204c0006b4d82
:0204c100ce79f2
:0204c200d69ac8
:0204c300defb5e
:0204c4000841ed
:0204c5000841ec
:0204c6000841eb
:0204c7000841ea
:0204c800ffdf54
:0204c900f79e9c
:0204ca00000030
:0204cb0000002f
:0204cc00630cbf
:0204cd006b6d55
:0204ce000841e3
:0204cf000841e2
:0204d000d6ba9a
:0204d100d69ab9
:0204d200ef5ddc
:0204d300f79e92
:0204d400f7be71
:0204d500f79e90
:0204d600b596d9
:0204d700a5344a
:0204d80084108e
:0204d900296593
:0204da009cf391
:0204db008c7122
:0204dc0039e7fe
:0204dd006b4d65
:0204de006b4d64
:0204df004a6968
:0204e0004208d0
:0204e100318662
:0204e20039e7f8
:0204e3007befad
:0204e40073aef5
:0204e5007bcfcb
:0204e6007bcfca
:0204e7008c7116
:0204e8008c5135
:0204e9005acbec
:0204ea004a497d
:0204eb0039e7ef
:0204ec008c5131
:0204ed00c6380f
:0204ee00c6380e
:0204ef00bdf757
:0204f000ffff0c
:0204f1000020e9
:0204f2000841bf
:0204f3000841be
:0204f400dedb4d
:0204f500e71c02
:0204f600ef5db8
:0204f700f79e6e
:0204f8000841b9
:0204f9000841b8
:0204fa00000000
:0204fb000000ff
:0204fc00738efd
:0204fd0039e7dd
:0204fe000841b3
:0204ff000841b2
:02050000d6ba69
:02050100d6ba68
:02050200ef5dab
:02050300f79e61
:02050400f79e60
:02050500f7be3f
:02050600ad55f1
:02050700d6ba62
:02050800defb18
:020509004208a6
:02050a009cf360
:02050b00632c5f
:02050c004a495a
:02050d00422882
:02050e007bef81
:02050f00318633
:020510004a6936
:0205110042089e
:0205120042287d
:0205130042287c
:0205140073aec4
:020515005acbbf
:02051600738ee2
:02051700ad55e0
:020518005acbbc
:020519008c71e3
:02051a004a494c
:02051b004a494b
:02051c00a51424
:02051d00bdd748
:02051e00d69a6b
:02051f00dedb21
:020520000020b9
:020521000020b8
:0205220008418e
:0205230008418d
:02052400d6ba45
:02052500e71cd1
:02052600f79e3e
:02052700f79e3d
:02052800086168
:02052900084187
:02052a000000cf
:02052b000000ce
:02052c0039e7ad
:02052d00084183
:02052e00f79e36
:02052f00f7be15
:02053000f79e34
:02053100f79e33
:02053200f7be12
:0205330010a214
:02053400108233
:02053500108232
:0205360008417a
:020537000000c2
:02053800f7be0c
:02053900f7be0b
:02053a00bdf70b
:02053b00bdf70a
:02053c0039c7bd
:02053d005aeb77
:02053e005acb96
:02053f008c51dd
:0205400052aabd
:02054100738eb7
:02054200630c48
:020543005acb91
:0205440094928f
:020545007bcf6a
:020546009cf324
:020547007bef48
:020548003186fa
:02054900bdf7fc
:02054a0052aab3
:02054b00b5b643
:02054c0029453f
:02054d00e73c89
:02054e00e71ca8
:02054f000000aa
:020550000000a9
:02055100002088
:02055200f79e12
:02055300f79e11
:02055400f79e10
:02055500f79e0f
:02055600f79e0e
:02055700f79e0d
:020558000000a1
:020559000000a0
:02055a0000009f
:02055b0000009e
:02055c00b5b632
:02055d00f79e07
:02055e00f7bee6
:02055f00f79e05
:02056000f79e04
:02056100f7bee3
:02056200f7bee2
:02056300000096
:02056400294527
:02056500108202
:0205660008414a
:02056700084149
:02056800f7bedc
:02056900f7bedb
:02056a00e73c6c
:02056b00defbb5
:02056c00bdd7f9
:02056d00630c1d
:02056e008c718e
:02056f00738e89
:020570008c51ac
:020571005acb63
:020572005acb62
:0205730073ae65
:0205740052aa89
:020575004a49f1
:020576005acb5e
:020577005acb5d
:02057800ce595a
:02057900d69a10
:02057a008430cb
:02057b008c51a1
:02057c00dedbc4
:02057d008430c8
:02057e0010a2c9
:02057f00086111
:02058000000079
:02058100000078
:02058200f79ee2
:02058300f79ee1
:02058400f79ee0
:02058500f79edf
:02058600f79ede
:02058700f79edd
:02058800000071
:02058900000070
:02058a0000006f
:02058b0000006e
:02058c0000006d
:02058d0000006c
:02058e0000006b
:02058f0000006a
:02059000000069
:02059100000068
:02059200000067
:02059300000066
:02059400000065
:02059500000064
:02059600000063
:02059700000062
:02059800000061
:02059900defb87
:02059a00defb86
:02059b00defb85
:02059c0000005d
:02059d0000005c
:02059e00b5b6f0
:02059f0052aa5e
:0205a000a53480
:0205a1003186a1
:0205a2007befed
:0205a3005aeb11
:0205a4006b6d7d
:0205a500738e53
:0205a600738e52
:0205a7005acb2d
:0205a800738e50
:0205a9005aeb0b
:0205aa00f7be9a
:0205ab00ffdf70
:0205ac00ffff4f
:0205ad0000004c
:0205ae00ffff4d
:0205af00ffff4c
:0205b000ffff4b
:0205b100000048
:0205b200e73c24
:0205b300ef5dfa
:0205b400f7be90
:0205b500000044
:0205b600ffdf65
:0205b700ffdf64
:0205b800ffff43
:0205b900000040
:0205ba00f79eaa
:0205bb00f79ea9
:0205bc00ffff3f
:0205bd0000003c
:0205be0000003b
:0205bf0000003a
:0205c000000039
:0205c100000038
:0205c200000037
:0205c300000036
:0205c400000035
:0205c500000034
:0205c600000033
:0205c700000032
:0205c800000031
:0205c900000030
:0205ca0000002f
:0205cb0000002e
:0205cc0000002d
:0205cd0000002c
:0205ce00dedb72
:0205cf00d6ba9a
:0205d000c6184b
:0205d100ce79e1
:0205d200b596dc
:0205d30094b2e0
:0205d4006b4d6d
:0205d5007bcfda
:0205d60073ae02
:0205d70073ae01
:0205d8007bcfd7
:0205d9006b4d68
:0205da0084108b
:0205db00b596d3
:0205dc00f7be68
:0205dd0000001c
:0205de00defb42
:0205df00ffdf3c
:0205e000f79e84
:0205e100000018
:0205e200ffdf39
:0205e300ffff18
:0205e400ffff17
:0205e500000014
:0205e600f79e7e
:0205e700ffff14
:0205e800ffff13
:0205e900000010
:0205ea00ef5dc3
:0205eb00ffff10
:0205ec00ffff0f
:0205ed0000000c
:0205ee00ffff0d
:0205ef00ffff0c
:0205f000ffff0b
:0205f100000008
:0205f200ffdf29
:0205f300ffff08
:0205f400ffff07
:0205f500000004
:0205f600e71c00
:0205f700ffff04
:0205f800ffff03
:0205f900000000
:0205fa00f7be4a
:0205fb00ffff00
:0205fc00ffffff
:0205fd000000fc
:0205fe00d6ba6b
:0205ff00f79e65
:02060000ffdf1a
:020601000000f7
:02060200ef7d8a
:02060300ffdf17
:02060400fffff6
:020605000000f3
:02060600e71cef
:02060700f7be3c
:02060800fffff2
:020609000000ef
:02060a00ef5da2
:02060b00f7be38
:02060c00ffffee
:02060d000000eb
:02060e00ef7d7e
:02060f00f7be34
:02061000e73cc5
:020611000000e7
:02061200ef5d9a
:02061300ffdf07
:02061400dedb2b
:020615000000e3
:02061600ffffe4
:02061700ffffe3
:02061800ffffe2
:020619000000df
:02061a00f79e49
:02061b00ffffdf
:02061c00ef7d70
:02061d000000db
:02061e00f7be25
:02061f00ffffdb
:02062000f79e43
:020621000000d7
:02062200ffdff8
:02062300ffffd7
:02062400f7be1f
:020625000000d3
:02062600ffdff4
:02062700ffffd3
:02062800ffdff2
:020629000000cf
:02062a00ffffd0
:02062b00ffffcf
:02062c00ffdfee
:02062d000000cb
:02062e00ef5d7e
:02062f00ffffcb
:02063000ef5d7c
:020631000000c7
:02063200f7be11
:02063300ffffc7
:02063400ffdfe6
:020635000000c3
:02063600ef7d56
:02063700ffffc3
:02063800f79e2b
:020639000000bf
:02063a00f79e29
:02063b00ffffbf
:02063c00ffdfde
:02063d000000bb
:02063e00f79e25
:02063f00ffdfdb
:02064000ef5d6c
:020641000000b7
:02064200ffffb8
:02064300ffffb7
:02064400ef7d48
:020645000000b3
:02064600ffffb4
:02064700ffffb3
:02064800ef7d44
:020649000000af
:02064a00ffffb0
:02064b00ffffaf
:02064c00f79e17
:02064d000000ab
:02064e00ffffac
:02064f00ffffab
:02065000f79e13
:020651000000a7
:02065200ffffa8
:02065300ffffa7
:02065400f7beef
:020655000000a3
:02065600ffffa4
:02065700ffffa3
:02065800f7beeb
:0206590000009f
:02065a00ffffa0
:02065b00ffff9f
:02065c00ffdfbe
:02065d0000009b
:02065e00ffff9c
:02065f00ffff9b
:02066000ffdfba
:02066100000097
:02066200ffff98
:02066300ffff97
:02066400ffff96
:02066500000093
:02066600ffff94
:02066700ffff93
:02066800d6ba00
:0206690000008f
:02066a00ffff90
:02066b00ffff8f
:02066c00f79ef7
:02066d0000008b
:02066e00ffdfac
:02066f00ffff8b
:02067000f79ef3
:02067100000087
:02067200f79ef1
:02067300dedbcc
:02067400a514cb
:02067500000083
:02067600ffff84
:02067700ef5d35
:02067800b5b615
:0206790000007f
:02067a00ffff80
:02067b00ffdf9f
:02067c00ef5d30
:02067d0000007b
:02067e00ffff7c
:02067f00ffdf9b
:02068000ef7d0c
:02068100000077
:02068200ffff78
:02068300f7bec0
:02068400d6bae4
:02068500000073
:02068600ffff74
:02068700f7bebc
:02068800ce5949
:0206890000006f
:02068a00ffff70
:02068b00ffff6f
:02068c00f7beb7
:02068d0000006b
:02068e00ad5568
:02068f00a514b0
:020690007beffe
:02069100000067
:02069200ffff68
:02069300ffff67
:02069400f79ecf
:02069500000063
:02069600f7bead
:02069700f7beac
:02069800defb87
:0206990000005f
:02069a00ffff60
:02069b00ffff5f
:02069c00e73c39
:02069d0000005b
:02069e00ffff5c
:02069f00ffff5b
:0206a000defb7f
:0206a100000057
:0206a200ffff58
:0206a300ffff57
:0206a400bdf7a0
:0206a500000053
:0206a600e73c2f
:0206a700defb78
:0206a800ce7909
:0206a90000004f
:0206aa00d6babe
:0206ab00d69add
:0206ac00ce5925
:0206ad0000004b
:0206ae0094b204
:0206af0073ae28
:0206b0004228de
:0206b100000047
:0206b2008c7149
:0206b300738e44
:0206b4004a6991
:0206b500000043
:0206b6008c5165
:0206b7006b4d89
:0206b800318689
:0206b90000003f
:0206ba00ef7dd2
:0206bb00bdf789
:0206bc006b4d84
:0206bd0000003b
:0206be00949214
:0206bf008410a5
:0206c000632ca9
:0206c100000037
:0206c200ffff38
:0206c300f79ea0
:0206c400dedb7b
:0206c500000033
:0206c600ffff34
:0206c700ffdf53
:0206c800ef7dc4
:0206c90000002f
:0206ca00ffff30
:0206cb00ffff2f
:0206cc00f7be77
:0206cd0000002b
:0206ce008c514d
:0206cf00632c9a
:0206d000108296
:0206d100000027
:0206d200841092
:0206d30073ae04
:0206d4005acbff
:0206d500000023
:0206d600ef7db6
:0206d700c61843
:0206d8008c5143
:0206d90000001f
:0206da00ffff20
:0206db00d6ba8d
:0206dc009cd3ad
:0206dd0000001b
:0206de00ffff1c
:0206df00dedb60
:0206e000ad5516
:0206e100000017
:0206e200d69aa6
:0206e300bdd781
:0206e4009cf385
:0206e500000013
:0206e600ffff14
:0206e700f79e7c
:0206e800e73ced
:0206e90000000f
:0206ea00f7be59
:0206eb00ef7da1
:0206ec00e71c09
:0206ed0000000b
:0206ee00ef5dbe
:0206ef00e71c06
:0206f000dedb4f
:0206f100000007
:0206f200ad75e4
:0206f300738e04
:0206f40010a252
:0206f500000003
:0206f600a53429
:0206f700738e00
:0206f800294592
:0206f9000000ff
:0206fa00ffff00
:0206fb00ce59d6
:0206fc007bef92
:0206fd000000fb
:0206fe00fffffc
:0206ff00d69a89
:020700008c71fa
:020701000000f6
:020702009cf366
:020703008c71f7
:020704007bcfa9
:020705000000f2
:02070600e71cee
:02070700d69a80
:0207080052aaf3
:020709000000ee
:02070a00ffffef
:02070b00bdd758
:02070c00632c5c
:02070d000000ea
:02070e00c638eb
:02070f0094b2a2
:020710005acbc2
:020711000000e6
:02071200d6ba55
:02071300ad75c2
:020714007bcf99
:020715000000e2
:020716009492bb
:020717007bcf96
:020718005acbba
:020719000000de
:02071a00ffdfff
:02071b00e71cd9
:02071c00ce59b4
:02071d000000da
:02071e00ffffdb
:02071f00ffdffa
:02072000f79e42
:020721000000d6
:020722009cd366
:020723005acbaf
:020724000000d3
:020725000000d2
:0207260094b28b
:0207270052aad4
:020728000000cf
:020729000000ce
:02072a00a51414
:02072b005aeb87
:02072c000000cb
:02072d000000ca
:02072e00ad55c7
:02072f00630c59
:0207300008417e
:020731000000c6
:020732008c71c8
:020733005aeb7f
:0207340021049e
:020735000000c2
:02073600bdd72d
:0207370084300c
:02073800420875
:020739000000be
:02073a00ffffbf
:02073b00bdd728
:02073c0073ae9a
:02073d000000ba
:02073e00b5b64e
:02073f00843004
:0207400052aabb
:020741000000b6
:02074200ef5d69
:02074300c618d6
:020744009cd344
:020745000000b2
:02074600b5b646
:02074700a534d7
:02074800949289
:020749000000ae
:02074a00949287
:02074b00528ad0
:02074c000000ab
:02074d000000aa
:02074e009cf31a
:02074f005acb83
:0207500008613e
:020751000000a6
:02075200ad55a3
:02075300632c15
:0207540010a2f1
:020755000000a2
:0207560094b25b
:020757005aeb5b
:0207580010a2ed
:0207590000009e
:02075a008430e9
:02075b00528ac0
:02075c0010a2e9
:02075d0000009a
:02075e0073ae78
:02075f004a69e5
:0207600018c3bc
:02076100000096
:02076200dedbdc
:0207630094926e
:02076400420849
:02076500000092
:02076600ad756f
:020767007bcf46
:0207680039e76f
:0207690000008e
:02076a00d6bafd
:02076b009cd31d
:02076c0000008b
:02076d0000008a
:02076e00ad7567
:02076f005acb63
:02077000000087
:02077100000086
:020772009cf3f6
:02077300528aa8
:02077400000083
:02077500000082
:020776008430cd
:02077700422816
:0207780000205f
:0207790000007e
:02077a00b5b612
:02077b00630c0d
:02077c0000205b
:02077d0000007a
:02077e0094b233
:02077f00528a9c
:0207800008412e
:02078100000076
:020782009cd306
:020783005acb4f
:020784001082e1
:02078500000072
:02078600738e70
:02078700420826
:02078800086106
:0207890000006e
:02078a00bdd7d9
:02078b0073ae4b
:02078c002965dd
:02078d0000006a
:02078e00dedbb0
:02078f008c716b
:0207900039c767
:02079100000066
:0207920094b21f
:020793006b4dac
:0207940039e743
:02079500000062
:020796008430ad
:02079700630cf1
:0207980031a688
:0207990000005e
:02079a00e73c3a
:02079b00ad555a
:02079c006b4da3
:02079d0000005a
:02079e00ce5932
:02079f007befee
:0207a00031a680
:0207a100000056
:0207a2008430a1
:0207a30052aa58
:0207a4002945e5
:0207a500000052
:0207a600f79ebc
:0207a700a51497
:0207a800528a73
:0207a90000004e
:0207aa00dedb94
:0207ab009cf3bd
:0207ac00632cbc
:0207ad0000004a
:0207ae008c516c
:0207af00632cb9
:0207b0004208fd
:0207b100000046
:0207b200ef5df9
:0207b300b596f9
:0207b4007befd9
:0207b500000042
:0207b600ffdf63
:0207b700c63842
:0207b80094b2f9
:0207b90000003e
:0207ba00ffff3f
:0207bb00dedb83
:0207bc00bdd7a7
:0207bd0000003a
:0207be00ffdf5b
:0207bf00e73c15
:0207c000d69ac7
:0207c100000036
:0207c200f7be80
:0207c300f79e9f
:0207c400ef7dc7
:0207c500000032
:0207c600ffff33
:0207c700ffff32
:0207c800ffdf51
:0207c90000002e
:0207ca00ffff2f
:0207cb00ffff2e
:0207cc00ffdf4d
:0207cd0000002a
:0207ce00c6184b
:0207cf00632c99
:0207d000000027
:0207d100000026
:0207d2009cd3b6
:0207d300528a48
:0207d4000841da
:0207d500000022
:0207d600a51468
:0207d70052aa24
:0207d8000841d6
:0207d90000001e
:0207da00ad75fb
:0207db005acbf7
:0207dc000861b2
:0207dd0000001a
:0207de00a53440
:0207df005acbf3
:0207e0000861ae
:0207e100000016
:0207e200b596ca
:0207e3005aebcf
:0207e400108281
:0207e500000012
:0207e600b5b6a6
:0207e700632c81
:0207e80018c334
:0207e90000000e
:0207ea00841079
:0207eb004a4979
:0207ec00108279
:0207ed0000000a
:0207ee00c6182b
:0207ef006b6d30
:0207f00018e30c
:0207f100000006
:0207f20094b2bf
:0207f30052aa08
:0207f40010a251
:0207f500000002
:0207f6009cf372
:0207f7005aebbb
:0207f80018e304
:0207f9000000fe
:0207fa00c638ff
:0207fb007bcfb2
:0207fc0029458d
:0207fd000000fa
:0207fe00ad55f7
:0207ff00632c69
:020800002124b1
:020801000000f5
:020802009cd385
:0208030052aaf7
:0208040018e3f7
:020805000000f1
:020806009cf361
:020807005aebaa
:020808002124a9
:020809000000ed
:02080a00bdf738
:02080b0073aeca
:02080c0039c7ea
:02080d000000e9
:02080e00ad55e6
:02080f006b6d0f
:0208100031a60f
:020811000000e5
:02081200d6ba54
:020813008c5106
:020814004a494f
:020815000000e1
:02081600f7be2b
:02081700ad75bd
:02081800632c4f
:020819000000dd
:02081a00632c4d
:02081b00422871
:02081c0029456c
:02081d000000d9
:02081e00ce59b1
:02081f009cd368
:020820006b6dfe
:020821000000d5
:02082200e73cb1
:02082300b5b668
:020824008c71d5
:020825000000d1
:02082600d69a60
:02082700c618f1
:02082800b5b663
:020829000000cd
:02082a00b59681
:02082b005acba6
:02082c000000ca
:02082d000000c9
:02082e009492a2
:02082f004a4934
:020830000000c6
:020831000000c5
:02083200a534eb
:0208330052aac7
:020834000000c2
:020835000000c1
:02083600ad55be
:02083700528ae3
:020838000000be
:020839000000bd
:02083a00a51403
:02083b004a6908
:02083c000000ba
:02083d000000b9
:02083e009cd349
:02083f004a4924
:020840000000b6
:020841000000b5
:02084200ad7592
:0208430052aab7
:020844000000b2
:020845000000b1
:02084600b5b645
:020847005acb8a
:02084800084165
:020849000000ad
:02084a009cd33d
:02084b004a69f8
:02084c00084161
:02084d000000a9
:02084e00c638aa
:02084f00632c18
:0208500008613d
:020851000000a5
:0208520094927e
:020853004a69f0
:02085400086139
:020855000000a1
:02085600a514e7
:0208570052aaa3
:0208580010820c
:0208590000009d
:02085a00a534c3
:02085b005acb76
:02085c0010a2e8
:02085d00000099
:02085e00a534bf
:02085f005aeb52
:0208600018c3bb
:02086100000095
:02086200d6ba04
:020863007bcf49
:0208640021244d
:02086500000091
:0208660094926a
:020867004a69dc
:0208680018c3b3
:0208690000008d
:02086a00bdd7f8
:02086b00632cfc
:02086c00212445
:02086d00000089
:02086e00c618aa
:02086f007bef1d
:0208700042281c
:02087100000085
:02087200ce595d
:020873008c51a6
:020874004a69cf
:02087500000081
:02087600ad755e
:0208770073ae5e
:020878004a49eb
:0208790000007d
:02087a00ffff7e
:02087b00bdf7c7
:02087c008430c6
:02087d00000079
:02087e00a514bf
:02087f007bcf2d
:020880005acb51
:02088100000075
:02088200c63876
:020883009cf3e4
:020884008410de
:02088500000071
:02088600a514b7
:020887008430bb
:020888006b6d96
:0208890000006d
:02088a00d69afc
:02088b00ad7549
:02088c00949244
:02088d00000069
:02088e00e71c65
:02088f00c61889
:02089000a5348d
:02089100000065
:02089200c61886
:02089300b59618
:02089400ad5560
:02089500000061
:0208960094b21a
:020897004228f5
:020898001082cc
:0208990000005d
:02089a00bdd7c8
:02089b005aeb16
:02089c0018c37f
:02089d00000059
:02089e00ad5556
:02089f005aeb12
:0208a000210431
:0208a100000055
:0208a200b5b6e9
:0208a3006b6d7b
:0208a40031a67b
:0208a500000051
:0208a600ef5d04
:0208a7009cd3e0
:0208a800630cdf
:0208a90000004d
:0208aa00bdf798
:0208ab008c516e
:0208ac00632cbb
:0208ad00000049
:0208ae0094b202
:0208af006b6d6f
:0208b000528a6a
:0208b100000045
:0208b200e71c41
:0208b300ad7521
:0208b4008410ae
:0208b500000041
:0208b60094921a
:0208b7004208f5
:0208b80000003e
:0208b90000003d
:0208ba00ce5915
:0208bb005acb16
:0208bc0000003a
:0208bd00000039
:0208be00ad5536
:0208bf00528a5b
:0208c0000841ed
:0208c100000035
:0208c200a5147b
:0208c3004a6980
:0208c4000841e9
:0208c500000031
:0208c6009cf3a1
:0208c700528a53
:0208c80010829c
:0208c90000002d
:0208ca009cf39d
:0208cb006b4d73
:0208cc004228c0
:0208cd00000029
:0208ce00f7be73
:0208cf00ad7505
:0208d0007bcfdc
:0208d100000025
:0208d200ffdf46
:0208d300c63825
:0208d400a51469
:0208d500000021
:0208d600ffff22
:0208d700f7be6a
:0208d800ef7db2
:0208d90000001d
:0208da00c6183e
:0208db0052aa1f
:0208dc0000001a
:0208dd00000019
:0208de00ad75f6
:0208df004a4984
:0208e000000016
:0208e100000015
:0208e200a5343b
:0208e3004228a9
:0208e400000012
:0208e500000011
:0208e600bdd77c
:0208e7004a695c
:0208e80000000e
:0208e90000000d
:0208ea009cf37d
:0208eb004228a1
:0208ec0000000a
:0208ed00000009
:0208ee00bdf754
:0208ef005acbe2
:0208f00008619d
:0208f100000005
:0208f200b5b699
:0208f30052aa07
:0208f400086199
:0208f500000001
:0208f6008c7103
:0208f7004208b5
:0208f8000841b5
:0208f9000000fd
:0208fa00ad55fa
:0208fb0052aaff
:0208fc0018c31f
:0208fd000000f9
:0208fe00c638fa
:0208ff006b6d1f
:0209000039c7f5
:020901000000f4
:020902006b6d1b
:020903005acbcd
:020904004a495e
:020905000000f0
:02090600b5b684
:020907009492c8
:020908007bcfa3
:020909000000ec
:02090a00ef7d7f
:02090b00ce59c3
:02090c00b5b67e
:02090d000000e8
:02090e00ffffe9
:02090f00ffdf08
:02091000f7be30
:020911000000e4
:02091200ad75c1
:020913004a692f
:02091400084198
:020915000000e0
:020916009cd370
:02091700422874
:02091800086174
:020919000000dc
:02091a009cd36c
:02091b004a4947
:02091c0010a227
:02091d000000d8
:02091e00843023
:02091f004a4943
:02092000212490
:020921000000d4
:02092200ef5d87
:020923008c51f5
:020924004a493e
:020925000000d0
:0209260094b289
:020927005acba9
:0209280031a6f6
:020929000000cc
:02092a00841037
:02092b00528aee
:02092c00318612
:02092d000000c8
:02092e00b5967c
:02092f004a6913
:0209300010a213
:020931000000c4
:02093200ce599c
:02093300630c53
:0209340031860a
:020935000000c0
:02093600a51406
:02093700630c4f
:02093800420873
:020939000000bc
:02093a00defbe2
:02093b00bdf706
:02093c00ad7597
:02093d000000b8
:02093e0094b271
:02093f004a6903
:02094000212470
:020941000000b4
:02094200d69a43
:020943006b6dda
:0209440031a6da
:020945000000b0
:02094600ad55ad
:020947005acb89
:0209480029651f
:020949000000ac
:02094a00dedbf2
:02094b008c51cd
:02094c005aeb64
:02094d000000a8
:02094e00841013
:02094f006b4dee
:020950005acb80
:020951000000a4
:02095200a514ea
:020953004a490f
:02095400086138
:020955000000a0
:02095600a534c6
:020957004a69eb
:0209580010a2eb
:0209590000009c
:02095a00ad7579
:02095b00528abe
:02095c0018c3be
:02095d00000098
:02095e00a514de
:02095f004a69e3
:02096000ffdfb7
:02096100000094
:02096200ffff95
:02096300ffdfb4
:02096400ffff93
:02096500000090
:02096600ffff91
:02096700f7bed9
:02096800ffdfaf
:0209690000008c
:02096a00ffff8d
:02096b00ffff8c
:02096c00ffff8b
:02096d00000088
:02096e00ef7d1b
:02096f00bdd7f2
:02097000c618a7
:02097100000084
:02097200ffff85
:02097300dedbc9
:02097400defba8
:02097500000080
:02097600ffff81
:02097700ffdfa0
:02097800ffdf9f
:0209790000007c
:02097a00ffff7d
:02097b00ffff7c
:02097c00ffff7b
:02097d00000078
:02097e00ffff79
:02097f00f7bec1
:02098000f79ee0
:02098100000074
:02098200ffdf95
:02098300ffdf94
:02098400f7bebc
:02098500000070
:02098600f7beba
:02098700dedbb5
:02098800ce7926
:0209890000006c
:02098a00ffff6d
:02098b00ef5d1e
:02098c00defb90
:02098d00000068
:02098e00ad5565
:02098f0042081c
:020990000861fc
:02099100000064
:02099200000063
:02099300000062
:02099400000061
:02099500000060
:02099600ffff61
:02099700ffff60
:02099800ffff5f
:0209990000005c
:02099a008410c7
:02099b007beff0
:02099c008c715c
:02099d00000058
:02099e00f7bea2
:02099f00f79ec1
:0209a000f7bea0
:0209a100000054
:0209a200ffff55
:0209a300ffdf74
:0209a400ffff53
:0209a500000050
:0209a600ffdf71
:0209a700f79eb9
:0209a800ffff4f
:0209a90000004c
:0209aa00ffdf6d
:0209ab00ffdf6c
:0209ac00ffdf6b
:0209ad00000048
:0209ae00defb6e
:0209af00dedb8d
:0209b000defb6c
:0209b100000044
:0209b200ffff45
:0209b300f79ead
:0209b400ffff43
:0209b500000040
:0209b600ffff41
:0209b700ffdf60
:0209b800ffff3f
:0209b90000003c
:0209ba00ffff3d
:0209bb00ffdf5c
:0209bc00ffff3b
:0209bd00000038
:0209be00ffff39
:0209bf00ffff38
:0209c000ffff37
:0209c100000034
:0209c200ffff35
:0209c300ef5de6
:00000001FF
